:020000041008E2
:1000000000000828D9D0081081DA081049D6081055
:1000100085DA081089DA08108DDA0810000000006F
:10002000000000000000000000000000FDD60810E5
:1000300091DA08100000000095DA081099DA08102B
:100040009BCE0810C1CE0810E7CE08100DCF0810C7
:1000500033CF081059CF08107FCF0810A5CF081054
:100060009DDA0810A1DA0810A5DA0810A9DA08103C
:10007000ADDA0810B1DA0810B5DA0810B9DA0810EC
:100080002DE9F843002000200020DFF84C5D00201F
:10009000287001F0F1F9002001F07CFA0223DFF86A
:1000A0003C2D0021002001F0B0FB0223DFF8302DB1
:1000B0000221002001F0A9FB0223DFF8282D0421F2
:1000C000002001F0A2FB0223DFF81C2D06210020F6
:1000D00001F09BFB0223DFF8142D0021552001F0D5
:1000E00094FB0223DFF8082D0221552001F08DFB3F
:1000F0000223DFF8002D0421552001F086FB0621A4
:10010000582001F01DFD2870002001F043FA95F8F9
:1001100000902878012814D0C0F04B86032800F006
:10012000AC804ED3052800F00682C0F05581072828
:1001300000F05D83C0F0AD82082800F0068400F076
:1001400038BEDFF8B45C01232A000021002001F052
:10015000E9FE0223DFF8A42C0021002001F055FB6A
:100160002A680021322001F0FFFA0621582001F010
:10017000E7FC0400002001F00DFA0EE00223DFF896
:10018000802C0021002001F040FB0621582001F0C6
:10019000D7FC0400002001F0FDF9052CEEDA002C5C
:1001A0000AD02C600021002001F0A1FE01232A00CA
:1001B0000021002001F0FBFE002001F0EBF900F02F
:1001C000F8BD5FFA89F9B9F101095FEAC9090024AC
:1001D00025E0012214EB0901002001F027FF012294
:1001E0005F21002001F067FFDFF8BC5D012305EB14
:1001F00084025F21002001F095FE0223DFF8AC0DA0
:1002000050F824206100C9B2002001F0FEFA55F830
:1002100024206100C9B2322001F0A6FA641C042C2B
:10022000D7DBDFF8844D002355224846010089B210
:10023000002001F015FD20600223552219F1010173
:1002400089B2002001F00CFD60600423552219F1F1
:10025000020189B2002001F003FDA06006235522AF
:1002600019F10309494689B2002001F0F9FCE06068
:10027000002001F08FF900F09CBD5FFA89F9B9F117
:1002800001095FEAC909002425E0012214EB0901F4
:10029000002001F0CBFE01225F21002001F00BFFC6
:1002A000DFF89C5D012305EB84025F21002001F053
:1002B00039FE0223DFF88C0D50F824206100C9B20A
:1002C000002001F0A2FA55F824206100C9B23220C2
:1002D00001F04AFA641C042CD7DBDFF8644D0023DC
:1002E00055224846010089B2002001F0B9FC206087
:1002F0000223552219F1010189B2002001F0B0FC5E
:1003000060600423552219F1020189B2002001F036
:10031000A7FCA0600623552219F1030189B2002031
:1003200001F09EFCE060002001F034F9042527E094
:10033000012215EB0901002001F078FE01225F2166
:10034000002001F0B8FE012304EB85025F210020AC
:1003500001F0E8FD0223DFF8EC0C50F8252015F140
:10036000FC014900C9B2002001F04FFA54F82520E1
:1003700015F1FC014900C9B2322001F0F5F96D1CFC
:10038000082DD5DB0023552219F1040189B2002084
:1003900001F066FC20610223552219F1050189B2A2
:1003A000002001F05DFC60610423552219F1060173
:1003B00089B2002001F054FCA0610623552219F1F6
:1003C0000709494689B2002001F04AFCE06100209B
:1003D00001F0E0F800F0EDBC5FFA89F9B9F101092C
:1003E0005FEAC909002425E0012214EB090100207D
:1003F00001F01CFE01225F21002001F05CFEDFF80D
:10040000A45D012305EB84025F21002001F08AFD39
:100410000223DFF8940D50F824206100C9B20020B7
:1004200001F0F3F955F824206100C9B2322001F03F
:100430009BF9641C042CD7DBDFF8684D00235522A0
:100440004846010089B2002001F00AFC2060022326
:10045000552219F1010189B2002001F001FC606010
:100460000423552219F1020189B2002001F0F8FBA2
:10047000A0600623552219F1030189B2002001F082
:10048000EFFBE060002001F085F8042527E0012261
:1004900015EB0901002001F0C9FD01225F210020B8
:1004A00001F009FE012304EB85025F21002001F029
:1004B00039FD0223DFF8F00C50F8252015F1FC017E
:1004C0004900C9B2002001F0A0F954F8252015F127
:1004D000FC014900C9B2322001F046F96D1C082D1B
:1004E000D5DB0023552219F1040189B2002001F067
:1004F000B7FB20610223552219F1050189B20020C2
:1005000001F0AEFB60610423552219F1060189B2A6
:10051000002001F0A5FBA0610623552219F107096F
:10052000494689B2002001F09BFBE061002001F008
:1005300031F800F03EBC5FFA89F9B9F101095FEAD0
:10054000C909002425E0012214EB0901002001F073
:100550006DFD01225F21002001F0ADFDDFF84C5C54
:10056000012305EB84025F21002001F0DBFC022364
:10057000DFF83C0C50F824206100C9B2002001F0E3
:1005800044F955F824206100C9B2322001F0ECF89A
:10059000641C042CD7DBDFF8144C0023552248469A
:1005A000010089B2002001F05BFB2060022355228C
:1005B00019F1010189B2002001F052FB60600423AF
:1005C000552219F1020189B2002001F049FBA06017
:1005D0000623552219F1030189B2002001F040FBE6
:1005E000E060002000F0D6FF042527E0012215EB93
:1005F0000901002001F01AFD01225F21002001F015
:100600005AFD012304EB85025F21002001F08AFCE2
:100610000223DFF89C0B50F8252015F1FC0149005E
:10062000C9B2002001F0F1F854F8252015F1FC01C1
:100630004900C9B2322001F097F86D1C082DD5DBB6
:100640000023552219F1040189B2002001F008FBB2
:1006500020610223552219F1050189B2002001F021
:10066000FFFA60610423552219F1060189B20020C6
:1006700001F0F6FAA0610623552219F1070949464F
:1006800089B2002001F0ECFAE061002000F082FF66
:100690008FE35FFA89F9B9F101095FEAC90900241A
:1006A00025E0012214EB0901002001F0BFFC01222A
:1006B0005F21002001F0FFFCDFF8985D012305EBCE
:1006C00084025F21002001F02DFC0223DFF8740971
:1006D00050F824206100C9B2002001F096F855F8C6
:1006E00024206100C9B2322001F03EF8641C042CC1
:1006F000D7DBDFF8604D002355224846010089B260
:10070000002001F0ADFA20600223552219F1010109
:1007100089B2002001F0A4FA60600423552219F187
:10072000020189B2002001F09BFAA0600623552245
:1007300019F1030189B2002001F092FAE060002073
:1007400000F028FF042527E0012215EB0901002015
:1007500001F06CFC01225F21002001F0ACFC0123C0
:1007600004EB85025F21002001F0DCFB0223DFF8AF
:10077000D40850F8252015F1FC014900C9B2002029
:1007800001F043F854F8252015F1FC014900C9B2E5
:10079000322000F0E9FF6D1C082DD5DB0023552227
:1007A00019F1040189B2002001F05AFA20610223F4
:1007B000552219F1050189B2002001F051FA60615A
:1007C0000423552219F1060189B2002001F048FAEC
:1007D000A0610623552219F10709494689B2002074
:1007E00001F03EFAE061002000F0D4FEE1E25FFAA1
:1007F00089F9B9F101095FEAC909002425E001225C
:1008000014EB0901002001F011FC01225F210020FE
:1008100001F051FCDFF8C85B012305EB84025F2186
:10082000002001F07FFB0223DFF8180850F8242095
:100830006100C9B2002000F0E8FF55F824206100F3
:10084000C9B2322000F090FF641C042CD7DBDFF823
:10085000904B002355224846010089B2002001F048
:10086000FFF920600223552219F1010189B200200D
:1008700001F0F6F960600423552219F1020189B2F2
:10088000002001F0EDF9A0600623552219F10301C3
:1008900089B2002001F0E4F9E060002000F07AFE67
:1008A000042527E0012215EB0901002001F0BEFB21
:1008B00001225F21002001F0FEFB012304EB8502F1
:1008C0005F21002001F02EFB0223DFF8780750F8AB
:1008D000252015F1FC014900C9B2002000F095FF68
:1008E00054F8252015F1FC014900C9B2322000F06E
:1008F0003BFF6D1C082DD5DB0023552219F10401A7
:1009000089B2002001F0ACF920610223552219F1CF
:10091000050189B2002001F0A3F96061042355228A
:1009200019F1060189B2002001F09AF9A0610623AD
:10093000552219F10709494689B2002001F090F9C2
:10094000E061002000F026FE33E25FFA89F9B9F198
:1009500001095FEAC909DFF88C5A64232A00494675
:10096000002001F0DFFA0223DFF87C2A00210020BA
:1009700000F04BFF95ED000BBDEEC00B10EE102A02
:100980000021322000F0F0FE0223DFF8602A04216B
:10099000002000F03AFF95ED020BBDEEC00B10EE0B
:1009A000102A0421322000F0DFFE0621582001F039
:1009B000C7F803E00021582001F0C2F83328F9DA23
:1009C000002805D000EE100AB8EEC00B85ED000B34
:1009D0000621582001F0B4F8002805D000EE100AD6
:1009E000B8EEC00B85ED020B002000F0D3FD022312
:1009F000DFF8FC290021002000F007FF95ED040B33
:100A0000BDEEC00B10EE102A0021282000F0ACFE35
:100A10000223DFF8E0290121002000F0F6FE022386
:100A2000DFF8D4290221002000F0EFFE0223DFF8D6
:100A3000CC290421002000F0E8FE95ED060BBDEE68
:100A4000C00B10EE102A0421282000F08DFE022396
:100A5000DFF8AC290521002000F0D7FE0223DFF8E3
:100A6000A4290621002000F0D0FE0021582001F02A
:100A700067F80328F9DA002805D000EE100AB8EE6E
:100A8000C00B85ED040B0621582001F059F803280E
:100A9000F9DA002805D000EE100AB8EEC00B85ED9B
:100AA000060B002000F076FD95ED040BB7EE002B51
:100AB000B4EE420BF1EE10FA40F0618100262FE017
:100AC00000EE100AB8EEC00B300080B2400128449E
:100AD00080ED0E0B20E02100C9B202290AD140426C
:100AE00000EE100AB8EEC00B300080B2400128447E
:100AF00080ED0C0B04215A2001F022F800280BD0C5
:100B0000DFF808198842DBD1300080B24001284468
:100B100000220023C0E90E23002000F03BFD761CDC
:100B200095ED000BB0EE002BB8EE003B00EE023B63
:100B3000300080B200EE100AB8EE400BB4EE430B6A
:100B4000F1EE10FA40F1F480320092B20021002060
:100B500000F00AFE02239DA20021322000F055FE83
:100B60009BA702233A000221002000F04EFE300035
:100B700080B24001284490ED080BBDEEC00B10EE92
:100B8000102A02211E2000F0EFFD0FF24828022358
:100B900042460421002000F038FE300080B24001BF
:100BA000284490ED0A0BBDEEC00B10EE102A042174
:100BB0001E2000F0D9FD0021582000F0C1FF0328BD
:100BC000F9DA002800D004000621582000F0B8FF10
:100BD00000282BD0DFF83418884209D1300080B2C9
:100BE000400105EB000200200021C2E908011DE0E0
:100BF0002100C9B201290AD100EE100AB8EEC00BDB
:100C0000300080B24001284480ED080B0EE0210046
:100C1000C9B202290AD1404200EE100AB8EEC00B58
:100C2000300080B24001284480ED080B002158209C
:100C300000F086FF002817D0DFF8D017884209D1CE
:100C4000300080B2400105EB000200200021C2E923
:100C50000A0109E000EE100AB8EEC00B300080B2C5
:100C60004001284480ED0A0B002000F093FC320084
:100C700092B20021002000F077FD0223C9A20021DA
:100C8000322000F0C2FD02233A000221002000F0D1
:100C9000BCFD300080B24001284490ED0C0BBDEE4D
:100CA000C00B10EE102A02211E2000F05DFD022371
:100CB00042460421002000F0A8FD300080B240012F
:100CC000284490ED0E0BBDEEC00B10EE102A04214F
:100CD0001E2000F049FD01215A2000F031FF0328B9
:100CE000F9DA002800D0040002215A2000F028FF81
:100CF00000283FF4FFAEDFF81417884208D1300017
:100D000080B24001284400220023C0E90C23F1E610
:100D10002100C9B201297FF4DEAE00EE100AB8EE60
:100D2000C00B300080B24001284480ED0C0BE1E69E
:100D30000223DFF8D4260221002000F066FD95EDA5
:100D4000C60BBDEEC00B10EE102A0221322000F0BF
:100D50000BFD02215A2000F0F3FE00281CD0DFF822
:100D6000AC16884204D100200021C5E9C60113E079
:100D700000EE100AB8EEC00B85EDC60B0CE095ED49
:100D8000040BB0EE002BB4EE420BF1EE10FA03D1DF
:100D90000120DFF888160870002000F0FBFB4946B0
:100DA000002001F0A4F864232A004946002001F045
:100DB000FEF800F0A3FA00F0FBF800F045F900F0AF
:100DC000F9F900F0DDFABDE8F18300004100000010
:100DD0005800000059000000A943022838D9081023
:100DE00040D9081048D9081050D9081058D908100F
:100DF00060D9081068D908106043022870D908101B
:100E000090D7081038B5DFF808060078052858D1C3
:100E1000DFF804460123042294ED130AB7EEC00A5A
:100E20000021002000F072FD0123042294ED140A39
:100E3000B7EEC00A0121002000F068FD0123042262
:100E400094ED150AB7EEC00A0221002000F05EFD05
:100E50000123022294ED060AB7EEC00A0321002006
:100E600000F054FD0123022294ED070AB7EEC00AF8
:100E70000421002000F04AFDDFF8985501230422E8
:100E8000B5F9100000EE100AB8EEC00B04213C20AA
:100E900000F03CFD0123022294ED080AB7EEC00ADF
:100EA0000521002000F032FD01230422B5F91200D3
:100EB00000EE100AB8EEC00B05213C2000F026FD24
:100EC0006FE0DFF854450123042294ED130AB7EED6
:100ED000C00A0021002000F019FD0123042294ED36
:100EE000140AB7EEC00A0121002000F00FFD012313
:100EF000042294ED150AB7EEC00A0221002000F08A
:100F000005FD01230422DFF8140590ED300AB7EE49
:100F1000C00A02213C2000F0F9FC0123022294EDDA
:100F2000060AB7EEC00A0321002000F0EFFC0123FF
:100F30000422DFF8EC04007800EE100AB8EE400B53
:100F400003213C2000F0E2FC0123022294ED070A79
:100F5000B7EEC00A0421002000F0D8FC01230422CF
:100F6000DFF8C00490ED000AB7EEC00A04213C206F
:100F700000F0CCFC0123022294ED080AB7EEC00A6F
:100F80000521002000F0C2FC01230422DFF8D40474
:100F9000007800EE100AB8EE400B05213C2000F06E
:100FA000B5FC31BD42000000B8410228B808022853
:100FB000F8B508250020461CDFF86C44012304EB3B
:100FC00080022900002000F0ADFF6D1C771C01237A
:100FD00004EB86022900002000F0A4FF6D1C7E1C9B
:100FE000012304EB87022900002000F09BFF6D1C09
:100FF000771C012304EB86022900002000F092FFF9
:101000006D1C7E1C012304EB87022900002000F0E8
:1010100089FF6D1C701C012304EB8602290000204F
:1010200000F080FF6D1C002004EB800191ED000AB0
:10103000B8EE400ADFF8E41381ED300A401CF1BD40
:101040003842022898080228F8B518240020461CC7
:10105000544D012305EB80022100002000F062FFC7
:10106000641C771C012305EB86022100002000F0A0
:1010700059FF641C7E1C012305EB87022100002020
:1010800000F050FF641C771C012305EB8602210051
:10109000002000F047FF641C7E1C012305EB870243
:1010A0002100002000F03EFF641C771C012305EBAB
:1010B00086022100002000F035FF641C7E1C012305
:1010C00005EB87022100002000F02CFF641C0123A7
:1010D00005EB86022100002000F024FF0020D34908
:1010E00005EB800292ED000AB8EE400A81ED050A98
:1010F000401C05EB800292ED000AB8EE400A81ED3B
:10110000060A401C05EB800292ED000AB8EE400A88
:1011100081ED070A401CC6499FED970B05EB800245
:1011200092ED001AB8EE411B21EE001BB7EEC11B79
:1011300081ED051A401C05EB800292ED001AB8EE15
:10114000411B21EE001BB7EEC11B81ED061A401CAE
:1011500005EB800292ED001AB8EE411B21EE000B68
:10116000B7EEC00B81ED070A401CB2499FEDBE0BE4
:1011700005EB800292ED001AB8EE411B21EE001B38
:10118000B7EEC11B81ED051A401C05EB800090ED08
:10119000001AB8EE411B21EE000BB7EEC00B81ED3B
:1011A000060AF1BD98410228C8080228D841022841
:1011B000E8080228F8B520250020461C9E4C012393
:1011C00004EB80022900002000F0ACFE6D1C771CAF
:1011D000012304EB86022900002000F0A3FE6D1C11
:1011E0007E1C012304EB87022900002000F09AFEF8
:1011F0006D1C771C012304EB86022900002000F0FF
:1012000091FE6D1C7E1C012304EB87022900002047
:1012100000F088FE6D1C701C012304EB860229007F
:10122000002000F07FFE6D1C00217C4B54F8210053
:1012300083F8D400491C4A1C93F8D400002802D13A
:101240009FED7E0A01E09FED7E0A04EB8100D0ED68
:10125000000AB8EE601B9FED7B3B21EE031BB8EE4E
:10126000C00B21EE000BB7EEC00B83ED340A7748BC
:1012700004EB820191ED000AB8EE400A80ED050A08
:10128000521C04EB820191ED000AB8EE400A80ED99
:10129000060A521C04EB820191ED000AB8EE400AE6
:1012A00080ED070A521C6A489FED6F0B04EB820128
:1012B00091ED001AB8EE411B21EE001BB7EEC11BE9
:1012C00080ED051A521C04EB820191ED001AB8EE74
:1012D000411B21EE001BB7EEC11B80ED061A521C0C
:1012E00004EB820191ED001AB8EE411B21EE000BD8
:1012F000B7EEC00B80ED070AF1BD000070B52824E1
:10130000002509E00123534800EB8502210000205D
:1013100000F008FE641C6D1C082DF3DB002519E0AD
:101320002F4E012306EB85022100002000F0FAFD7C
:10133000641C06EB850090ED000AB8EE400B9FEDB3
:101340000E2B20EE020BBCEEC00B06EB850080EDF1
:10135000000A6D1C082DE3DB1024002509E00123A1
:10136000434800EB85022100002000F0DBFD641CF7
:101370006D1C082DF3DB70BD9A9999999999B93F25
:1013800010B5354C012322000021002000F0CAFDD9
:10139000224821680166016E012906D01ED3032967
:1013A00012D00AD3042916D018E0002180F86C105E
:1013B00001202A4981F8E00010E0002180F87C102B
:1013C00000202749087009E0002180F89C100020C7
:1013D0002849087002E0002180F8A41010BD000028
:1013E00018420228B833022878D90810E0D708102C
:1013F00080D9081088D9081090D9081098D90810F9
:10140000A0D90810A8D90810B0D908109F860100EB
:10141000A9430228B8420228B83B0228F039022822
:10142000A343022800430228B8410228703F022843
:10143000B03F022830400228D841022801000000B5
:10144000FFFFFFFF2D431CEBE2361A3F70400228DE
:10145000F03F0228F841022860430228A009022830
:101460002C230228A44302287B14AE47E17A843F50
:10147000384202286C25022880B500F05FFE482023
:1014800000F0C9FE00F0A6FE012000F0C4FE00F04E
:10149000A1FE00F07AFE01BD10B500F04FFE4F2016
:1014A00000F0B9FE00F096FE012000F0E7FE040017
:1014B00000F06BFE2000C0B210BDF0B40246106810
:1014C00095681318506803EB5004C00748BF4D449B
:1014D000A3422DD013F8016B16F0030004BF13F8DC
:1014E000010BC01C31090F2907D113F8011B0F3163
:1014F00003E013F8017B05F8017B401EF9D10029B8
:10150000E6D013F8010BC6F38106032E08BF13F8CB
:10151000016B00EB0620404228440026B71E8F4294
:101520001EBF10F8017B05F8017B761CF6D1CFE7D2
:10153000F0BC02F10C00704710B5040000F0FEFD95
:10154000782000F068FE00F045FE002000F063FE09
:1015500000F040FE2000C0B200F05DFE00F03AFE58
:1015600000F013FE10BD10B5040000F0E7FD782078
:1015700000F051FE00F02EFE402000F04CFE00F086
:1015800029FE2000C0B200F046FE00F023FE00F06D
:10159000FCFD10BD70B50400002509E02000C0B2BC
:1015A000FFF7E1FF761C3000C0B28028F6DB6D1C2F
:1015B0002800C0B208280CDAB5F15000C0B2FFF71D
:1015C000BBFF0020FFF7B8FF1020FFF7B5FF002694
:1015D000E9E770BD10B5072300220121392000F092
:1015E00046FF0723002201213B2000F040FF01219C
:1015F000392000F0E2FEAE20FFF79EFF0020FFF74B
:101600009BFF1020FFF798FF4020FFF795FF8120F8
:10161000FFF792FFCF20FFF78FFFA020FFF78CFF8F
:10162000C020FFF789FFA620FFF786FFA820FFF75D
:1016300083FF3F20FFF780FFD320FFF77DFF0020CF
:10164000FFF77AFFD520FFF777FF8020FFF774FFC1
:10165000D920FFF771FFF120FFF76EFFDA20FFF7C7
:101660006BFF1220FFF768FFDB20FFF765FF4020CC
:10167000FFF762FF2020FFF75FFF0220FFF75CFF0C
:101680008D20FFF759FF1420FFF756FFA420FFF726
:1016900053FFA620FFF750FFAF20FFF74DFF0020BC
:1016A000FFF778FF0020002400E0641C2000C0B297
:1016B0000C280BDA2000C0B2DFF8781448600B2148
:1016C0002000C0B200F0AAFB0028EED00A20DFF80C
:1016D0006414086010BD10B50400B1F15000C0B230
:1016E000FFF72AFF2000C0B2000950F01000C0B27E
:1016F000FFF722FF14F00F0454F001042000C0B2E1
:10170000FFF71AFF10BDF8B505000E0014001034E5
:101710003100C9B22800C0B2FFF7DDFF002000276A
:1017200009E0DFF814042100C9B217EB0111405C95
:10173000FFF719FF7F1C082FF3DB761C3100C9B2BD
:101740002800C0B2FFF7C7FF00250AE0DFF8E80372
:101750002100C9B215EB01110844007AFFF703FF1D
:101760006D1C082DF2DBF1BDF8B584B004000D004E
:10177000160000200020102100226F46380000F0E3
:10178000BDFE002E24D442F2107096FBF0F100FB57
:1017900011604FF47A7190FBF1F000904FF47A7081
:1017A000694696FBF0F200FB1260642290FBF2F0B7
:1017B0004860642096FBF0F200FB12600A2290FB66
:1017C000F2F088600A2096FBF0F100FB11660396A8
:1017D0000020002613E068463100C9B250F82120ED
:1017E0002000C0B2792801DB00246D1CD2B2290090
:1017F000C9B22000C0B2FFF786FF0834761C300063
:10180000C0B20428E7DB05B0F0BD2DE9F8430400C1
:101810000D001600002000200027DBB2012B16D09F
:10182000022B40D070E0BA494A46D2B20620424369
:1018300001EB02004146C9B2405CFFF794FE18F18B
:1018400001084046C0B20628EDDBA41D7F1C38000D
:10185000C0B2305C002813D03800C0B2305CB0F1A8
:1018600020092000C0B27F2801DB00246D1C290064
:10187000C9B22000C0B2FFF72EFF5FF00008E0E71A
:1018800042E0AD484146C9B2090151FA89F1084424
:10189000007AFFF768FE19F101094846C0B208282E
:1018A000EFDB08347F1C3800C0B2305C00282BD03E
:1018B0003800C0B2305CB0F120082000C0B27928F6
:1018C00001DB00246D1C2900C9B22000C0B2FFF763
:1018D00002FF5FF000090AE097484146C9B20901DA
:1018E00051FA89F1405CFFF73EFE19F101094846C3
:1018F000C0B20828F0DB691CC9B22000C0B2FFF7F3
:10190000EAFE5FF00009C8E7BDE8F1832DE9F8437E
:101910002DED028B86B004000D00B0EE408B16005A
:101920001F0002A87B490E2200F020FE9FED7C1BC9
:10193000B4EE418BF1EE10FA02DBBCEEC80B03E013
:10194000B1EE480BBCEEC00B8DED000A9FED720BA3
:1019500028EE001B9FED723BB4EE431BF1EE10FA34
:1019600006DB28EE000B51EC100B00F053FE07E0F5
:101970009FED6D1B28EE010B51EC100B00F04AFEA1
:10198000E8466B4A002300F069FEC8F80420B5EE73
:10199000408BF1EE10FA02D8BFEE000B01E0B7EE7B
:1019A000000BB7EE002BB4EE420BF1EE10FA01D1B2
:1019B000202000E02D208DF8080000995F48B1FB41
:1019C000F0F200FB121142F21072B1FBF2F1303171
:1019D0008DF80910009A42F21071B2FBF1F301FB8D
:1019E00013224FF47A73B2FBF3F230328DF80A20EF
:1019F000009B4FF47A72B3FBF2FC02FB1C335FF0E6
:101A0000640CB3FBFCF330338DF80B30DDF800C011
:101A10005FF0640E02ABBCFBFEF90EFB19CC5FF06D
:101A20000A0EBCFBFEFC1CF1300C83F804C0DDF890
:101A300000E05FF00A0CBEFBFCF90CFB19EE1EF196
:101A4000300E8DF80DE0D8F804C0DFF8E4E0BCFB00
:101A5000FEF90EFB19CCDFF8E4E0BCFBFEFC1CF148
:101A6000300C83F807C0D8F804C0BCFBF0FE00FBC4
:101A70001ECC42F21070BCFBF0F030308DF810003C
:101A8000D8F80400B0FBF1FC01FB1C004FF47A71A4
:101A9000B0FBF1F030308DF81100D8F80400B0FB45
:101AA000F2F102FB11006421B0FBF1F030309872CA
:101AB000D8F804006421B0FBF1F201FB12000A2106
:101AC000B0FBF1F030308DF81300D8F804000A2193
:101AD000B0FBF1F201FB120030308DF81400300041
:101AE000C0B2072801DB0626FFE73B0029002000E3
:101AF000002202ACF6B23444E271DBB202AAC9B2EF
:101B0000C0B2FFF782FE06B0BDEC028BBDE8F183E8
:101B1000F0C80810A4D708100000000080842E41EF
:101B200000000000000000000000000080842EC1C2
:101B300040420F007041022878AE0810A0860100D4
:101B40002DE9F84F05000E00002000275FF0000887
:101B50005FF0000A00205FF00009002431E0B8F1D6
:101B60000A0F27D10A209AFBF0FA23E05FF00C0855
:101B7000442F05D119F10109B9F1C90F00DB641C2B
:101B8000B8F10A0FEBD0B8F10B0FE8D0B8F10C0F99
:101B9000E5D04FF47A709AFBF0F0002805D04FF4AE
:101BA0007A709AFBF0F100FB11AA0A205146824696
:101BB0000AFB018A52463100C9B22800C0B2FFF7C1
:101BC000D3FDB8F10B0F48D0002C46D1BB46FFF730
:101BD00063FC0700BBEB070BBBF1400FC6D138001D
:101BE000042836D005282BD0062820D0072815D069
:101BF0000C2828D00D2820D00E2815D00F280AD068
:101C0000142823D0152815D016280AD0172823D138
:101C10005FF00108ACE75FF00208A9E75FF0030896
:101C2000A6E75FF00408A3E75FF00508A0E75FF010
:101C300006089DE75FF007089AE75FF0080897E756
:101C40005FF0090894E75FF0000891E75FF00A0889
:101C50008EE75FF00B088BE78AE75046BDE8F28F0E
:101C60002DE9FD4F84B00F0000205FF00009002532
:101C7000002400200090002000265FF000085FF0A4
:101C8000000A00E001240B2D00F0B180002E40F08E
:101C9000AE80CB46FFF700FC8146BBEB090BBBF1E6
:101CA000400F31D1484604282BD0052823D00628E0
:101CB0001BD0072813D00C281FD00D2819D00E28B0
:101CC00011D00F2809D0142819D015280FD01628A4
:101CD00007D0172817D1012517E0022515E00325A5
:101CE00013E0042511E005250FE006250DE007258A
:101CF0000BE0082509E0092507E0002505E00A2595
:101D000003E00B2501E000E00C25B9F1440F0DD1F3
:101D10001AF1010ABAF1C90F08DB761C01233E4A09
:101D2000390089B29DF8100000F041F90A2D19D050
:101D30000B2D17D00C2D15D000984FF47A71B0FBF5
:101D4000F1F0002808D04FF47A700099009AB2FBA5
:101D5000F0F200FB1210009000980A2101FB0050E5
:101D6000009003E00A2D01D100200090009A29A1E3
:101D700001A800F08BFD022301AA9DF818109DF820
:101D80001400FFF742FD0098002824D1002D3FF4F5
:101D900079AF0A2D01D1002475E70B2D7FF473AFC5
:101DA000002C0FD101236A46390089B2002000F0CF
:101DB000B9F801236A46390089B29DF8100000F095
:101DC000F6F860E70123144A390089B29DF8100043
:101DD00000F0EDF857E70B2D7FF455AF01236A466D
:101DE000390089B29DF8100000F0E1F84BE7009847
:101DF00018F10208B8F1070F01DB5FF00008B8F135
:101E0000050F00DB0021002100910C2107B0BDE887
:101E1000F08F0000253564005C4302287FB5040084
:101E20000D000020009001236A462900C9B200205D
:101E300000F078F800982100C9B2884233D1002020
:101E40000390012303AA2900C9B2002000F06AF818
:101E500003980099884224D000200020029000209E
:101E6000019040F2FF3618E0012302AA3100280059
:101E7000C0B200F057F8012301AA31002000C0B21F
:101E800000F050F80198002806D1012302AA310081
:101E90002000C0B200F08BF8761E40F2CF308642B0
:101EA000E2DA012000E0002004B070BD38B50C007B
:101EB000602C01D2012000E00020974D362229003D
:101EC000C0B200F092FE372229009448007800F05A
:101ED0008CFE0121E40214F1A054200000F0C8FFA0
:101EE000002801D1012000E00020C0B232BD38B589
:101EF0000C00602C01D2012000E00020864D46221B
:101F00002900C0B200F071FE472229008348007802
:101F100000F06BFE0121E40214F1A054200000F057
:101F200068FF31BDF8B50E0014001D000020602EC2
:101F300001D2012000E00020774F59223900C0B2C1
:101F400000F053FE40F20120854201D2012000E062
:101F500000205A223900C0B200F047FE5B2239004F
:101F60006E48007800F041FE5FF0A050F602B6081F
:101F700000EB8601AA000B00012A0EDB13F01F0004
:101F80008218BFF34F8F664803602033203A012A3E
:101F9000F9DABFF34F8FBFF36F8F002004E0020127
:101FA0008A582260241D401CA842F8D3F1BD2DE9B7
:101FB000F04107000C0015001E00602C01D201202A
:101FC00000E00020DFF8508174224146C0B200F0EA
:101FD0000CFE40F20120864201D2012000E00020E8
:101FE00075224146C0B200F000FE762241464B48C1
:101FF000007800F0FAFD21003800FFF757FF0028B5
:1020000003D021003800FFF772FFE40214F1A0545E
:10201000002707E001222900200000F06FFF241DA7
:102020002D1D7F1CB742F5D3BDE8F08170B50D00C2
:1020300014000020602D01D2012000E00020364E67
:1020400092223100C0B200F0D0FD40F20120844263
:1020500001D2012000E0002093223100C0B200F044
:10206000C4FD942231002D48007800F0BEFD5FF0E1
:10207000A050ED02AD0800EB8501A2000B00012A83
:102080000EDB13F01F008218BFF34F8F244803604C
:102090002033203A012AF9DABFF34F8FBFF36F8F55
:1020A000002005E051F820201E4B43F82020401C62
:1020B000A042F7D370BD70B50C001500602C01D2A2
:1020C000012000E00020144EAB223100C0B200F02D
:1020D0008CFD40F20120854201D2012000E0002069
:1020E000AC223100C0B200F080FDAD2231000B48BF
:1020F000007800F07AFD0B4A2B0021000020FFF74A
:1021000056FF002070BD80B5002000F054FE012075
:102110000249087001BD000010D40810B443022821
:102120005CEF00E0582602280020002001E000BFFC
:10213000401C0100C9B21E29F9DB704780B503229B
:1021400001213B2000F06CF901213B2000F035F922
:102150000121392000F031F9FFF7E6FFFFF7E4FF36
:10216000FFF7E2FFFFF7E0FFFFF7DEFF00213B2074
:1021700000F023F9FFF7D8FFFFF7D6FFFFF7D4FFF2
:102180000021392000F019F901BD80B50322012199
:102190003B2000F045F90021392000F00EF9002124
:1021A0003B2000F00AF9FFF7BFFFFFF7BDFFFFF785
:1021B000BBFF0121392000F000F9FFF7B5FFFFF761
:1021C000B3FFFFF7B1FF01213B2000F0F6F8FFF766
:1021D000ABFF01BD80B5032200213B2000F020F9B8
:1021E00001213B2000F0E9F8FFF79EFF0121392093
:1021F00000F0E3F8FFF798FF3B2000F000F900281B
:1022000003D0FFF7C2FF012004E00021392000F0D5
:10221000D4F8002002BD38B50400032201213B2080
:1022200000F0FEF80021392000F0C7F800251EE07C
:1022300000213B2000F0C1F805E02006F8D501217F
:102240003B2000F0BAF8FFF76FFF0121392000F0C2
:10225000B4F8FFF769FF6400FFF766FFFFF764FF5C
:102260000021392000F0A9F8FFF75EFF6D1C28005F
:10227000C0B20828E1DBFFF757FF31BD70B504009D
:102280000026032200213B2000F0CAF8002517E0B9
:102290000021392000F091F8FFF746FFFFF744FFD7
:1022A000FFF742FF0121392000F087F876003B203C
:1022B00000F0A5F8002800D0761CFFF735FF6D1C54
:1022C0002800C0B20828E3DBE4B2002C02D000F002
:1022D00006F801E000F026F83000C0B270BD80B50D
:1022E0000021192000F069F8032201211A2000F0D2
:1022F00097F800211A2000F060F800F037F800F09D
:1023000035F800F033F80121192000F056F800F0FC
:102310002DF800F02BF800F029F80021192000F02A
:102320004CF801BD80B50021192000F046F80322C9
:1023300001211A2000F074F801211A2000F03DF864
:1023400000F014F800F012F800F010F80121192044
:1023500000F033F800F00AF800F008F800F006F892
:102360000021192000F029F801BD00000020002004
:1023700001E000BF401C0100C9B21E29F9DB704713
:102380000069C84010F001007047012212FA01F103
:1023900081607047012212FA01F14160704710B468
:1023A0008900436C0F248C40A34312F00F0212FAF1
:1023B00001F11943416410BC704780B5C9B20029CE
:1023C0000ED00100C9B2082291FBF2F302FB1311F7
:1023D000494AC0B2C010C0011044FFF7D6FF0DE05B
:1023E0000100C9B2082291FBF2F302FB1311424A29
:1023F000C0B2C010C0011044FFF7CCFF01BD80B5D2
:102400000100C9B2082291FBF2F302FB13113A4A10
:10241000C0B2C010C0011044FFF7B2FFC0B202BD8D
:1024200010B5C9B200290BD1D2B2002A02D0022ABB
:1024300002D003E00F220BE00B2209E00A2207E0A2
:10244000D2B2042A01D10C2200E00E2212F00702BF
:102450000100C9B2082391FBF3F403FB1411264BCE
:10246000C0B2C010C0011844FFF799FF10BD2DE99C
:10247000F8418DB004000E0015001F003421002229
:10248000E846404600F03AF8F6B2002E0ED1FFB210
:10249000002F02D0022F03D005E00F2001900DE0A5
:1024A000082001900AE00820019007E0FFB2042F05
:1024B00002D10F20019001E00E2001902000C0B257
:1024C000C0280FD02100C9B208206A4691FBF0F362
:1024D00000FB131108482300DBB2DB10DB011844BA
:1024E00000F00FFE2900C9B22000C0B2FFF765FF5F
:1024F0000EB0BDE8F08100000000314062F30F2211
:1025000062F31F42401810F0030308D0C91A1FD30A
:10251000DB0748BF00F8012D28BF20F8022D13006B
:1025200030B414461546103928BF20E93C00FAD8CB
:10253000490728BF20E90C0048BF40F8042D890056
:1025400028BF20F8022D48BF00F8012D30BC70478D
:10255000C91818BF00F8012DCB0728BF00F8012DBE
:1025600070470268531C03601170704762B38B0799
:1025700008D0521E11F8013B00F8013B00F0248006
:102580008B07F6D1830740F0208000BF103A07D3B5
:1025900030B4B1E83810103AA0E83810F9D230BCA5
:1025A000530724BFB1E80810A0E8081044BF51F851
:1025B000043B40F8043BD20724BF31F8022B20F83B
:1025C000022B44BF0B7803707047121F17D35B00B8
:1025D00009D151F8043B20F8023B1B0C121F20F8D4
:1025E000023BF6D20BE051F8043B00F8013B1B0A1A
:1025F00020F8023B1B0C121F00F8013BF3D238BF3E
:10260000121D521E24BF11F8013B00F8013BF8D8FF
:102610007047310040F21E4CBCEB115209DDC9027B
:1026200082F3070241F0004141EA50500021D040BE
:10263000704720320DDBC902D2F1200341F0004186
:1026400041EA5051C002D04001FA03FCD14060443D
:1026500070476FEAE171084670473200BBBBE1B1D9
:10266000B2F5803F80F07E80022A1ED98C46B1FBF5
:10267000F2F102FB11C31B0443EA1043B3FBF2FC6B
:1026800002FB1C3380B240EA0343B3FBF2F002FBCF
:10269000103240EA0C4000237047022A05D98446D4
:1026A000B0FBF2F002FB10C270474AB105D100F056
:1026B000010249085FEA300070470022002370479A
:1026C00000F05EBD0B000200002100207047904228
:1026D00071EB030CF6D3B3F5803F2FD2F0B5B3FA0C
:1026E00083F7B1FA81F4A7F10F0E3D1B5340CEF1F1
:1026F000200602FA0EF2F3415340B5F10F0746D817
:102700000F3C2C444140C4F12006A040F14141401F
:10271000B1FBF3F603FB1611A2FB0645001BA94112
:1027200002D2761E8018594180EA010221FA0EF386
:1027300062FA0EF200215A403046F0BD30B4B1FBCF
:10274000F3FC03FB1C11A2FB0C45001BA94103D2A7
:10275000ACF1010C8018594130BC02460B46604672
:1027600000217047B2F1807F65D3F0B5B2FA82F7ED
:10277000B1FA81F4C7F10F063D1B22FA06F307F107
:10278000110EF24120355A40B5F10F07B8D941403A
:10279000C4F12006A040F1414140B1FBF3FC03FB32
:1027A0001C11A2FB0C45001BA94103D2BCF1010C7A
:1027B000801859410F2F12D30F3FC90341EA5041EE
:1027C000B1FBF3F603FB1611A2FB0645D4EBC030B8
:1027D000A94102D2761E8018594146EACC3C07B383
:1027E0004140C7F12006B840F1414140B1FBF3F64A
:1027F00003FB1611A2FB0645001BA94102D2761E5F
:102800008018594180EA010221FA0EF3C7F1200431
:1028100062FA0EF20CFA07F05A402CFA04F1304337
:10282000F0BD80EA010221FA0EF3002162FA0EF2F5
:1028300060465A40F0BD8C46B1FBF2F102FB11C379
:102840001B0243EA1063B3FBF2FC02FB1C331B02C6
:102850004CEA002043EA1063B3FBF2FC02FB1C339A
:102860001B024CEA002043EA1063B3FBF2FC02FBBC
:102870001C331B024CEA002043EA1063B3FBF2FC5A
:1028800002FB1C324CEA0020002370470CB430B528
:1028900083B00A4606A902910446002501940095DA
:1028A00002AB01A9084878441E3000F06EFC019A82
:1028B000157000284EBF04460198041B204603B043
:1028C00030BC5DF80CFB00BF9BFCFFFF82B000201A
:1028D0000190002000900020019009E00098401C29
:1028E00000900098B0F5005FF8D30198401C01906B
:1028F0000198B0F5805F02D200200090F1E702B0AD
:10290000704780B50100002001F088FD01BD2DE970
:10291000F043ADF5137D0700884616001C0000202B
:10292000ADF802000020ADF8000000200290002069
:10293000ADF804000020ADF80600404601F08EFF1F
:102940000290DFF890532888002801D0286980473A
:10295000DFF884030078002800F0338128880028FD
:1029600000F01181BDF90600411CADF806103A00D7
:10297000010089B20020EB6898474746404601F0C5
:102980006DFF02906888A97990FBF1F0ADF8040022
:102990003800471C00780028FAD10020ADF800006C
:1029A0000EE07F1E38782F2802D038785C2804D1BA
:1029B000BDF80000401CADF800000298401E0290D7
:1029C000BDF80000022802DA02980028E9D5029832
:1029D000002806D47A1CDFF8041353A8FFF756FF2B
:1029E0000EE0BDF80000002805D13A00BC4953A80C
:1029F000FFF74CFF04E03A00B84953A8FFF746FF41
:102A00000020ADF8020042E0BDF80010BDF8002043
:102A1000BDF8023053AF9BB2BDF90400434313FA33
:102A200082F0385C43AA89B25054BDF80000401CC3
:102A3000ADF80000BDF8000080B2BDF90410884276
:102A40000EDA53A801F00AFFBDF80020BDF80230ED
:102A50009BB2BDF904104B4313FA82F18842D3D2E2
:102A6000002043A9BDF800208854BDF90600411C90
:102A7000ADF8061043AAE97911FB00F189B20020F4
:102A8000EB689847BDF80200401CADF80200BDF8A5
:102A9000027053A801F0E2FEBDF90410B0FBF1F0A2
:102AA000401CBFB2874203D20020ADF80000C1E74E
:102AB00032008C4953A8FFF7E9FEBDF90600411C1E
:102AC000ADF8061053AAE97911FB00F189B2002094
:102AD000EB689847002C74D00020ADF8020041E06C
:102AE000BDF80010BDF80020BDF802309BB2BDF962
:102AF0000400434313FA82F0205C43AA89B2505485
:102B0000BDF80000401CADF80000BDF8000080B228
:102B1000BDF9041088420EDA200001F09FFEBDF8D6
:102B20000020BDF802309BB2BDF904104B4313FAEC
:102B300082F18842D4D2002043A9BDF800208854F5
:102B4000BDF90600411CADF8061043AAE97911FB56
:102B500000F189B20020EB689847BDF80200401CE4
:102B6000ADF80200BDF80260200001F077FEBDF96B
:102B70000410B0FBF1F0401CB6B2864221D2002016
:102B8000ADF80000C1E74FF4807100220DF10C098F
:102B90004846FFF7B3FC3800A9688847002C07D0E7
:102BA000009433004246504903A8FFF76FFE05E04A
:102BB000330042464D4903A8FFF768FE03A8A96801
:102BC00088470DF5137DBDE8F08310B542480078C5
:102BD000002809D0474C2100002001F02DFC0122E3
:102BE0002100434801F0BBFE10BD38B50C001500B4
:102BF000C0B2002803D140480078002800D131BD80
:102C00003E490878002800D0FEE70878401C08708C
:102C100002F0AEF800232A0021003948FFF777FEC2
:102C2000FFF754FEF6E710B514001A00C0B20028F2
:102C300008D129480078002804D00B002100314831
:102C4000FFF765FE10BD002101804FF6FF71418046
:102C50008180FF218171C171002181600021C160EB
:102C60000021016170471B4902880A8042884A801E
:102C700082888A8082798A71C279CA7182688A6000
:102C8000C268CA6000690861012013490870704772
:102C900000B585B06846FFF7D6FF1B48029068462E
:102CA000FFF7E1FF05B000BD80B5FFF7F1FF00239E
:102CB00000225FF4E131002001F0E4FC4023134ADC
:102CC00000210B4801F0EBFF0121002001F05BFC2B
:102CD00001BD0000CC420228AA430228ECD708100C
:102CE000B4D70810F8D70810C4D6081064D7081055
:102CF00088420228AB4302289B090228AC430228E1
:102D0000C4D7081004D8081003290810304102283D
:102D1000010009B2002909D4012210F01F018A40E4
:102D2000DFF8941200B2400941F8202070470200F9
:102D300012B2002A05D44901DFF8802200B21154F2
:102D400008E04901DFF8782200B210F00F001044CB
:102D500000F8041C7047DFF86C02016851F00101B3
:102D600001600168C907FCD470479748016851F0B9
:102D70000101016070479548016851F0010101604F
:102D800070471FB5684602F0F5F800280DD0904C4A
:102D900018229049200002F089F90020E0754920AE
:102DA0008D490860002002F0B9F901208B490870B4
:102DB000FFF7D1FF1FBD80B5C0B201280ED103219E
:102DC000874802F001F903210320FFF7B0FF032039
:102DD000FFF79EFF01208349087002E0002081492F
:102DE0000870FFF7C2FFFFF7C6FF01207B4908709C
:102DF00001BD7CB504000D007B48D0E90023CDE97E
:102E000000232800C0B2002814D176480078012899
:102E10000DD06F4E18226F49300002F047F90020A4
:102E2000F07594206C490860002002F077F90020CA
:102E30006A49087001208DF8040000208DF8050013
:102E400000942A00D2B26946002002F074FB0028E8
:102E50000DD05F4C18225F49200002F027F90020B6
:102E6000E0759E205C490860002002F057F973BDB0
:102E70007CB505000C00280002F062FA00280DD095
:102E8000534E18225349300002F010F90020F0751B
:102E9000B52051490860002002F040F92000C0B27E
:102EA000002814D14F48007801280DD0484E182230
:102EB0004849300002F0FAF80020F075B920464980
:102EC0000860002002F02AF90020444908700095AB
:102ED000280002F06AFA002801D0202001E04FF417
:102EE000007001902200D2B26946002002F057FB28
:102EF000002801D1012000E0002076BDF8B584B0A3
:102F000004000D001600200002F01AFA00280DD06F
:102F10002F4F18222F49380002F0C8F80020F8750A
:102F2000DF202D490860002002F0F8F868461021E3
:102F300002F0C6FB3000C0B2002814D12948007846
:102F400001280DD0224F18222249380002F0AEF895
:102F50000020F875E62020490860002002F0DEF825
:102F600000201E49087001208DF8080001208DF80E
:102F7000090002208DF80A0001208DF80B000020C6
:102F80008DF80C00009401953200D2B26946002001
:102F900002F08DF900280DD00D4C18220D492000AB
:102FA00002F084F80020E075F5200B49086000204D
:102FB00002F0B4F805B0F0BD00E100E000E400E08C
:102FC00018ED00E00800244000F4244000F52440FF
:102FD0007042022824D3081034430228A043022858
:102FE000832D0810A1430228A0D8081030B4614BEB
:102FF0001818C009604C14EB001404290DD2236882
:103000001F25C8008540AB43D2B212F01F02C90091
:1030100012FA01F1194321600CE0091F63681F25B2
:10302000C8008540AB43D2B212F01F02C9008A40EB
:103030001A43626030BC7047002A04D1012212FAA0
:1030400001F1416003E0012212FA01F18160704751
:1030500010B48900436C0F248C40A34312F00F027C
:1030600012FA01F11943416410BC704710B4836C2B
:1030700001248C40A34312F0010212FA01F119431A
:10308000816410BC704710B4C36C01248C40A3430E
:1030900012F0010212FA01F11943C16410BC704729
:1030A00010B449001031C36C03248C40A34312F0C8
:1030B000030212FA01F11943C16410BC704742695E
:1030C000012212FA01F141614069704710B483692D
:1030D00001248C40A34312F0010212FA01F11943BA
:1030E000816110BC704710B44900036C03248C400C
:1030F000A34312F0030212FA01F11943016410BC58
:103100007047F8B505000E0014000027002D2ED0E2
:10311000002C2CD0226831002800FFF78DFF227A86
:1031200031002800FFF762FF626931002800FFF7D5
:103130009DFFA26931002800FFF7A5FFE269310079
:103140002800FFF7ADFF626831002800FFF780FF1D
:10315000E26831002800FFF7C6FF31002800FFF7C2
:10316000AEFF226931002800FFF7B0FF00E0034FF7
:103170003800F2BD0000CFBF0000304001005A000F
:103180007047330040F0200070472DE9F14FB0B098
:10319000924604910DF142013A9A2B9199464A7058
:1031A00000200AE01AF8011B0498309A9047002882
:1031B000049000F034860D98401C0D909AF80000A1
:1031C00050B12528EED100210022079108920991E3
:1031D0000A920B910C9204E00D9800F022BE41F08F
:1031E00001011AF8010F2028F9D023280CD02B2830
:1031F00004D02D2805D0302809D00BE041F0020181
:10320000EFE741F00401ECE741F00801E9E741F0A4
:103210001001E6E72A280FD1D9F8002052F8040B54
:10322000C9F8002000280F9003D540420F9041F0CC
:1032300004010AF1010A14E00F92DFF8EC3B0AE006
:103240000F98984205DA00EB800402EB4402303A12
:103250000F920AF1010A9AF80020A2F130000A2820
:10326000EED39AF800002E2803D04FF0FF320E92D2
:1032700029E01AF8010F2A2809D1D9F8000050F8DE
:10328000042BC9F800000E920AF1010A1BE02D2858
:103290000CBF0AF1010A002000220E92DFF8884BD1
:1032A0000BE040B90E9AA24205DA02EB820503EB6D
:1032B0004503303B0E930AF1010A9AF80030A3F15E
:1032C00030020A2AEDD3ADF840100FF660309AF8BC
:1032D000001002F0F9F908B11AF8010B8DF842005C
:1032E0009DF84200682805D19AF8000068280CD1A2
:1032F000622106E06C2804BF9AF800006C2804D113
:1033000071218DF842100AF1010A12A806901AF8EC
:1033100001BBBBF125012CD01C3900F09481091FA1
:10332000022940F29081133900F0AB84093900F092
:103330008A81891E00F04085491E00F0ED84491EF7
:10334000022940F28081091F00F0E684491F00F045
:10335000EF80491E00F09584491E00F0D780C91EF9
:103360000CD0891E00F08D84C91E00F08A8400F004
:103370002EBD01230793252100F026BDD9F80000BA
:1033800050F8044BC9F80000002C059440F0AB80C5
:103390002B994878002800F0A1804FF0FF340FF6F9
:1033A000942002F09DF9241A40F0398500F01BBDED
:1033B00001236A4602A9304600F000FE002840F0D2
:1033C0002E85641EF4D13096079C12AF74B1309EE6
:1033D00017F8011B0498B0470028049000F01F85DF
:1033E0000D98401C641E0D90F2D130960A9C30213D
:1033F000002C8DF800100CDD309E01236A4602A9D6
:10340000304600F0DBFD002840F00985641EF4D151
:103410003096059F089C74B1309E17F8011B0498E4
:10342000B0470028049000F0FA840D98401C641EF8
:103430000D90F2D130960B9C3021002C8DF80010AD
:103440000CDD309E01236A4602A9304600F0B6FD2D
:10345000002840F0E484641EF4D130960598089961
:10346000099C471874B1309E17F8011B0498B047A7
:103470000028049000F0D3840D98401C641E0D9029
:10348000F2D130960C9C3021002C8DF800100CDD10
:10349000309E01236A4602A9304600F08FFD0028C5
:1034A00040F0BD84641EF4D130969DF84000410781
:1034B0007FF584AE2020002D8DF800007FF77EAED2
:1034C000309C01236A4602A9204600F077FD0028BF
:1034D00040F0A5846D1EF4D130946FE60FF63C30B9
:1034E000059000F080BC0E9D002D04D5204601F013
:1034F000B5F9044607E02A46204602F011F90028F3
:1035000014BF041B2C46089400F06DBCD9F80010C1
:1035100051F8040BC9F8001020F00004002121F03C
:10352000FF35CDE9024512AB0593782100F040BC90
:103530002B99487820B14FF0FF340FF6B02030E7D8
:103540009DF84200622860D0682817D06A283FD0D2
:103550006C2806D0712847D074282CD07A281DD02A
:1035600062E0D9F8001051F8040BC9F800100028E7
:1035700066D14FF0FF340FF68C2012E7D9F8001017
:1035800051F8040BC9F8001020B94FF0FF340FF6C2
:10359000742006E70D99018000F025BCD9F80010D1
:1035A00051F8040BC9F80010002849D14FF0FF343E
:1035B0000FF65020F5E6D9F8001051F8040BC9F8C1
:1035C000001000283CD14FF0FF340FF63820E8E619
:1035D000D9F8001051F8040BC9F8001080B94FF069
:1035E000FF340FF62020DCE6D9F8001051F8040B68
:1035F000C9F8001020B94FF0FF340FF60820D0E6CC
:103600000D9AD317C0E90023EDE3D9F8001051F863
:10361000040BC9F8001020B94FF0FF340FF6E41086
:10362000BFE60D990170DEE3D9F8001051F8040BE4
:10363000C9F8001020B94FF0FF340FF6C810B0E6FB
:103640000D990160CFE39DF842004C2807BFD9F8DF
:103650000010CA1DD9F80000C21D22F00702C9F8E7
:103660000020D2E900010832C9F80020CDE90201AA
:10367000C80F02D007982D210AE0BDF8400081074D
:1036800002D507982B2103E0C00705D50798202114
:1036900012AA1154401C079012A807994BF020035E
:1036A00000EB010CDDE90201CDE92C01612BCDF825
:1036B00014C021AC0BD00E98002848BF062105D4B9
:1036C00004BF4BF02000672801D101210E91DDE9F4
:1036D00002014F0047EAD0777E15FF174FF0FF3207
:1036E000974208BF964210D1090341EA10510003E6
:1036F000002908BF002808D0ABF1610503211A2D6D
:10370000089118D30FF61C1110E0DDE902014A0000
:10371000521512F1010F11D108030FD1ABF1610560
:1037200003211A2D08911FD30FF6001103226046C2
:10373000FEF71CFF57E30FF6E801F7E7DDE90201AA
:103740006A4602F019F8CDE902014BF02000612829
:1037500011D1059830210170821C0592BBF1610FD7
:103760000CBF7821582102E00FF6BC01DEE7417062
:103770000798801C0790DDE9020120F0000231F07B
:10378000004308BF002A02D10026002542E14BF089
:103790002008B8F1610F40F092800E98002847BFD2
:1037A00021210191401C0190019FDDE92C017F1C2A
:1037B00000220023DDE9024502F016F838BF85F04B
:1037C000004500998DF88420091F002F00910DF10C
:1037D000850632DD204629460022002302F01EF82D
:1037E0002BD21C2202F034F804460D4602F0B2F847
:1037F000FF1F002F804609DD02F0B3F802460B469A
:103800002046294602F0B4F804460D46F01D072173
:10381000B8F1000F0CDD491E5EBF08F00F0200F882
:10382000012D4FEA2818F3D502E0002200F8012DFF
:10383000491EFAD5C61D002FCCDC0DF18500361AC5
:1038400001980DF185048642D8BF304600282FD458
:10385000B04206DA0DF185010A5C082AA8BF0F21E3
:1038600000DA0021024621AB134400E0401E13F8A9
:103870000159521E8D42F9D00F2904D10DF1850155
:103880008B5C5B1C8B54002A04D50099091D21AC6C
:10389000401C0091411E0BD4621813783033DDB206
:1038A0003A2DA4BF5B443A3B491E02F80139F4D5D6
:1038B0000E99002940F1AC80421E0E92A8E00099BA
:1038C000DFF8E82647F29750414391FBF2F200926D
:1038D000DDE92C45C2F10702002A25F0004504DD90
:1038E0002046294600F03EFB0BE052420020DFF864
:1038F000C01600F037FB02460B462046294602F070
:1039000040F804460D46B8F1660F06BF009F0A371F
:1039100006270E983F18142FC8BF142730208DF8A3
:1039200084000DF18506002F34DD2046294602F083
:1039300031F801460A4606F1080304200A26B2FBC4
:10394000F6F606EB860EA2EB4E02303203F8012C9F
:103950000A22B6FBF2F202EB820EA6EB4E063036DE
:10396000401E03F8026DE9D1083F002F03F108065D
:10397000D9DD084602F015F802460B4620462946D6
:1039800001F0F6FF0022DFF82C3602F011F80446B1
:103990000D46CAE70DF18500361A0DF1850404E0E5
:1039A0000098401E761E0090641C20783028F7D0C6
:1039B000B8F1660F02D10098401C04E0B8F1650F21
:1039C0000CBF012000200E9940188642B8BF701E1F
:1039D00000281DD4B04204DA215C3429C8BF392143
:1039E00000DC30210246631E9D1800E0401E15F8E1
:1039F0000169521E8E42F9D0392902D1A15C491CBD
:103A0000A154002A04D50099491C1C46401C009171
:103A10000646009D0E9F30B2002802DC01260FF200
:103A200010644BF02000662808BF6D1C15D0672875
:103A30000FFA85F841D118F1040F44DBB84542DA9A
:103A40009DF840006D1C010703D430B2B842D8BFC6
:103A5000074628B23F1A48BF00270FFA85F8B8F189
:103A6000000F00F3AF800898411C0891302205999F
:103A70000A54002F03DC9DF84000010705D5089883
:103A8000411C08912E2205990A5417EB080FB8BF64
:103A90007D422DB26842ED1932B20B909542B8BF0B
:103AA0002E46059B089836B20996324621461844A0
:103AB000FEF75CFDAD1B0C95CCE0BBF1610F15D1A1
:103AC0004FF0700B17E030B2B84204DA9DF84010A6
:103AD0000A0758BF07467F1E48BF0027BBF1670F84
:103AE00014BF4FF0450B4FF0650B04E0BBF1410FE5
:103AF00008BF4FF0500B0898411C0891002F059902
:103B000014F8012B0A5403DC9DF84000010719D575
:103B10000898411C08912E2205990A54002F11DDA6
:103B2000761E30B28742B8BF3E460598089B32B237
:103B300021461844FEF71AFD089836B23018BF1B0C
:103B400008900B97059808990844B8F1000F80F881
:103B500000B003D42B224270821C04E02D21454684
:103B60004170821C6D4200212CAB28460AE00446BD
:103B70000A2094FBF0F000EB8005A4EB450403F869
:103B8000014B491C00B20028F1DC012906DC4BF096
:103B90002000652804BF302002F8010B00292CAB5F
:103BA00008D1302002F8010B06E0491E585C303085
:103BB00002F8010B0029F8DC059908980844121A4C
:103BC000099247E030B229B288421BDA0598089B77
:103BD00032B221461844FEF7C9FC089936B2711872
:103BE0000891A8EB0600002F0B9003DC9DF8400025
:103BF000020705D5059A2E2050540999491C0991B0
:103C00000C9727E00598089B2AB221461844FEF736
:103C1000ADFC0898761B4044002F089003DC9DF80B
:103C200040100A0704D5411C08912E2205990A5418
:103C300030B28742B8BF3E460598089B32B204EBCB
:103C400008011844FEF792FC089836B23018BE1BE3
:103C500008900B969DF8400000F01400102840F0EA
:103C6000C280079A08980B99821809988A188218B6
:103C70000C980F998018884280F2B580081A0A9033
:103C8000B1E09DF84200622808D068280ED06A286A
:103C900014D06C281FD0712810D01CE0D9F8001067
:103CA00051F8040BC9F80010C0B21AE0D9F800109E
:103CB00051F8040BC9F8001080B212E0D9F80000E6
:103CC000C21D22F00702C9F80020D2E90001083223
:103CD000C9F8002006E0D9F8001051F8040BC9F823
:103CE00000100021CDE902019DF8400001075AD5DE
:103CF000DDE90223002B08BF002A54D04BF020003E
:103D0000782850D1079812A930220A54401C431C2D
:103D1000079301F800B046E09DF84200622808D001
:103D200068280ED06A2814D06C281FD0712810D0B3
:103D30001CE0D9F8001051F8040BC9F8001040B28B
:103D40001AE0D9F8001051F8040BC9F8001000B2BD
:103D500012E0D9F80000C21D22F00702C9F80020C5
:103D6000D2E900010832C9F8002006E0D9F80010B5
:103D700051F8040BC9F80010C117CDE90201002960
:103D800002D507982D210AE0BDF84000810702D531
:103D900007982B2103E0C00705D50798202112AA18
:103DA0001154401C079012A80799014405915946E7
:103DB00002A800F04DF816E001200790D9F80000A5
:103DC00050F8041BC9F800008DF848100BE00121E1
:103DD0002522BBF1000F07918DF8482003D0022265
:103DE00007928DF849B00F9D07990A986D1A0899A6
:103DF0002D1A0B986D1A09992D1A0C986D1A9DF8A9
:103E000040102D1A48073FF5DFAA2021002D8DF81C
:103E100000107FF7D9AA309E2C46FFF7C9BA4FF0A1
:103E2000FF3031B0BDE8F08FCBCCCC0C686A6C743D
:103E30007A4C00007072696E74665F733A2062613A
:103E40006420257320617267756D656E74000000D3
:103E50002DE9FC4707468A463C6950466F2808BF53
:103E6000082505D0FFF78EF9782814BF0A251025FC
:103E7000D7E900013C2680468946BAF1640F18BF95
:103E8000BAF1690F05D1002903D5D8F1000869EB13
:103E90004909B9F1000F08BFB8F1000F0CD1386B18
:103EA00050B9082D3AD197F83800010736D530229D
:103EB0003B2684F83B2031E08DF800A0404649467F
:103EC0002A46EB17FEF7CAFB3032D0B2761E3A28EC
:103ED00001960EDAA255404649462A46EB17FEF7F0
:103EE000BDFB80465FEA010908BFB8F1000F05D1AC
:103EF00008E09DF800001218513AEBE7F868A119A4
:103F00008842DBD3082D09D197F83800010705D581
:103F1000A05D302802D0761E3020A055C6F13C03AB
:103F2000BB61A119F960386B834208DAC31A3B629E
:103F30004FF6EF70398F01403987BDE8F3870028CD
:103F40000ED597F8380000F01400102808D17A6BCD
:103F50007969386A521A121AD21A002AC8BF3A620C
:103F6000BDE8F3872DE9D04306460F4614464FF0CF
:103F70000008DFF8449012E0E00707D542464B46C0
:103F80003046394601F014FD06460F464046494684
:103F900042464B4601F00CFD641080468946002CD9
:103FA000EAD130463946BDE8D0830000A086010042
:103FB0000000F03F84D7974100002440F8B5054643
:103FC0000E4617461C4600205CB117F8011BB0686E
:103FD000A847B06030B1F06A401CF0620020641E57
:103FE000F3D1F2BD4FF0FF30F2BD00007072696E88
:103FF00074665F733A20256E20646973616C6C6F20
:10400000776564007072696E74663A20626164203C
:10401000256E20617267756D656E7400000000008A
:104020006E616E004E414E00696E6600494E46005C
:1040300030003400022801D3012010E00B00DBB275
:10404000042B01DB01200AE0DFF8CC3703EB800012
:10405000C9B2405C824201D3012000E000207047D9
:10406000F8B504000F0015001E00022C01D301203A
:104070002AE02A003900C9B22000FFF7DBFF01283F
:1040800001D1012020E006983900C9B202291ED1D1
:10409000B6F5803F19D2202817D24FF4C052DFF86E
:1040A0007C1763030B4403EB850313441F6866F31B
:1040B00017271F606403214401EB850111440A683E
:1040C00060F3C7020A600020F2BD0120FCE7FFB2E6
:1040D000032F1FD1B6F1807F1AD2202818D24FF4B7
:1040E000E052DFF8381763030B4403EB85031344F6
:1040F0001F6807F0FF0757EA06271F606403214483
:1041000001EB850111440A6860F3C7020A60DAE72F
:104110000120D9E70120D7E700B20012C0B27047F2
:10412000F8B505000E001700280000B2FFF7F4FFF5
:1041300004002000C0B2022801D3012024E03A008C
:104140003100C9B22000C0B2FFF774FF012801D1CD
:10415000012019E0DFF8C4162000C0B24003084473
:104160002A00D2B200EB8200D0F8000CF6B266F35F
:10417000092067F30700E4B264032144EDB201EBC8
:104180008501C1F8000C0020F2BD70B504000D00DF
:104190001600022C01D301201DE032002900C9B213
:1041A0002000FFF747FF012801D1012013E0DFF8CD
:1041B0006C166003085850F0004050F0407050F406
:1041C0007F00EDB265F3092066F3070062038850B3
:1041D00064030859002070BDD0F840037047D0F840
:1041E0000803C005C00D7047C0F840127047D0F8F2
:1041F0000802C005C00D7047D0F80802C0F3C030F7
:10420000704738B505002800FFF7F1FF04002800CB
:10421000FFF7F2FF0419002C01D1012000E000207B
:10422000C0B232BDC0F8C81F7047D0F8C80F704781
:10423000C0F8881F7047D0F8880F7047016851F0A8
:1042400000410160704738B504001500C9B200296B
:1042500006D002291ED010D3042935D027D340E040
:10426000DFF8BC05A06001202073112060734FF4BB
:104270008C70E0811220208239E0DFF8A805A06070
:10428000012020731120607340F21D10E0816B202B
:1042900020822CE0DFF89005A0600120207311201F
:1042A00060734FF48E70E0816A2020821FE0DFF897
:1042B0007C05A060022020731120607340F21B1067
:1042C000E0816920208212E0DFF86405A06001200F
:1042D0002073132060734FF48D70E081682020827A
:1042E00005E07C22DFF84C150020FEF77EFCEDB2E5
:1042F000002D06D0022D1ED010D3042D35D027D38B
:1043000040E0DFF81C052060002020711120607162
:104310004FF48C70E0811220208239E0DFF8040530
:104320002060002020711120607140F21D10E0819A
:104330006B2020822CE0DFF8F00420600020207148
:10434000112060714FF48E70E0816A2020821FE09E
:10435000DFF8D8042060012020711120607140F244
:104360001B10E0816920208212E0DFF8C404206085
:1043700000202071132060714FF48D70E08168205F
:10438000208205E0A822DFF8AC140020FEF72DFC07
:1043900031BD10B5C0B2002806D002280AD006D31D
:1043A00004280DD009D30EE0DFF88C4411E0DFF8CB
:1043B0008C440EE0DFF888440BE0DFF8884408E026
:1043C000DFF8844405E0BD22DFF868140020FEF722
:1043D0000CFC200010BD38B50400DFF87054C9B2E1
:1043E0002000C0B255F82000FFF7FEFE2000C0B24A
:1043F00055F82000FFF705FF0028F7D031BD70B554
:1044000005000E00140006E031782800C0B2FFF766
:10441000E2FF641E761C002CF6D170BD38B5040096
:104420000D0005E029782000C0B2FFF7D4FF6D1C15
:1044300028780028F6D131BD70B504000D000020A9
:10444000DFF808642000C0B256F82000FFF7C7FE6E
:10445000002807D0E4B256F82400FFF7BDFE28700C
:10446000012000E00020C0B270BD70B505000C0056
:10447000DFF8D8632800C0B256F82000FFF7DBFE53
:104480004008400001002800C0B256F82000FFF7A5
:10449000CFFE2800C0B256F82000FFF7CCFE30F067
:1044A000020001002800C0B256F82000FFF7C0FE4D
:1044B0002800C0B256F82000FFF7BDFE30F0200003
:1044C00001002800C0B256F82000FFF7B1FE280016
:1044D000C0B256F82000FFF7AEFE30F040000100F9
:1044E0002800C0B256F82000FFF7A2FE2800C0B294
:1044F00056F82000FFF79FFE30F010000100280062
:10450000C0B256F82000FFF793FE2800C0B256F85C
:104510002000FFF790FE30F4807001002800C0B248
:1045200056F82000FFF784FE2800C0B256F820009D
:10453000FFF781FE30F4806001002800C0B256F819
:104540002000FFF775FE002C0ED02800C0B256F8F0
:104550002000FFF76AFE50F400700100EDB256F83B
:104560002500FFF765FE0DE02800C0B256F82000D8
:10457000FFF75BFE30F400700100EDB256F8250045
:10458000FFF756FE70BD70B505000C00DFF8BC6289
:104590002800C0B256F82000FFF747FE4008400050
:1045A00001002800C0B256F82000FFF73BFE2800AB
:1045B000C0B256F82000FFF738FE30F008000100C6
:1045C0002800C0B256F82000FFF72CFE2800C0B229
:1045D00056F82000FFF729FE30F0200001002800E7
:1045E000C0B256F82000FFF71DFE2800C0B256F8F2
:1045F0002000FFF71AFE30F4807001002800C0B2DE
:1046000056F82000FFF70EFE2800C0B256F8200032
:10461000FFF70BFE30F4007001002800C0B256F81E
:104620002000FFF7FFFD2800C0B256F82000FFF77A
:10463000FCFD30F4006001002800C0B256F82000F4
:10464000FFF7F0FD002C0ED02800C0B256F8200075
:10465000FFF7EBFD50F004000100EDB256F8250025
:10466000FFF7E0FD0DE02800C0B256F82000FFF78C
:10467000DCFD30F004000100EDB256F82500FFF734
:10468000D1FD70BD2DE9F841A7B005000F0016005F
:1046900028003100C0B2C9B2884201D1012000E037
:1046A00000201C00DFF88C814FF4CE724146C0B26E
:1046B000FEF79BFA28002100C0B2C9B2884201D19E
:1046C000012000E0002040F29D124146C0B2FEF7FA
:1046D0008CFA02A8142100F0F3FF342100220DF11E
:1046E00068084046FDF70AFF4C2100220DF11C0826
:1046F0004046FDF703FFFF003A0000235448002125
:10470000FDF7ACFF07002200D2B23100C9B202A807
:10471000FFF799FD08201B909DF80D008DF87000A3
:104720001AAA9DF80C100298FEF7EBFC06201B90CD
:104730009DF80D008DF870001AAA9DF814100498C9
:10474000FEF7DFFC00200790082008900820099061
:1047500002200B9000200C9000201290002014905A
:104760003A4C2800C0B254F8200001F06DFA3949E3
:104770002A00D2B2382042430A4407A92800C0B216
:1047800054F8200001F01EF92800C0B254F82000AF
:10479000FFF754FD2A00D2B20321BDF91600FFF73E
:1047A000BFFCBDF91600FFF7B7FC17F01F01009121
:1047B000C7F357132A00D2B20321C0B2FFF750FC4F
:1047C000BDF91600FFF7A8FC2A00D2B20321C0B23F
:1047D000FFF7DBFCBDF91800ADF800000320ADF8D1
:1047E000020001208DF8040007221B482900C9B2ED
:1047F00050F82110684600F0C7FA00212800C0B226
:10480000FFF7C1FE00212800C0B2FFF72EFE28B03E
:10481000BDE8F08100000000B0D80810000004409E
:104820000000314000023140000531408008314035
:104830000007314034D5081000006040000065409A
:1048400000006440000063400000624084090228C8
:1048500000809698D83802287009022800F10103D8
:10486000810704D010F8011B820781B1FAD10268D8
:10487000A2F10131914311F0803104BF50F8042FAF
:10488000F6E709BAB1FA81F100EBD100401CC01A79
:104890007047350082688918816003E08268416949
:1048A000521A8260816842699142F7D27047C268A9
:1048B0008918C16003E0C2684169521AC260C168C8
:1048C00042699142F7D2704770B50400002C01D0C4
:1048D000012000E000205422DFF8FC13C0B2FEF7F4
:1048E00084F90025207850F0010020700020A0609D
:1048F0000020E060606920616078002803D0022811
:1049000010D007D315E06169002266683000FDF71A
:10491000F5FD0EE061694900002266683000FDF790
:10492000EDFD06E061698900002266683000FDF750
:10493000E5FD002020702800C0B270BD10B5040055
:10494000002C01D0012000E000207022DFF8881345
:10495000C0B2FEF74AF960692169401A10BD2DE91D
:10496000F84305001600002D01D0012000E00020D2
:104970000C00AA22DFF86013C0B2FEF736F9002758
:104980000020002C01D10327B5E0287810F0050F96
:1049900001D00427AFE0287850F00400287028697F
:1049A000B042C0F0A380D5F81480A868B8EB000826
:1049B000B04567D26878002803D0022841D01FD3C1
:1049C00090E0424621006868AB6800EB0309484666
:1049D000FDF7CCFD41462800FFF75CFFB6EB08026F
:1049E00004EB08016868AB6800EB03042000FDF7E6
:1049F000BDFDB6EB080841462800FFF74BFF71E00C
:104A00005FEA480221006868AB6800EB430948464A
:104A1000FDF7ACFD41462800FFF73CFFB6EB08026E
:104A2000520004EB48016868AB6800EB43042000C7
:104A3000FDF79CFDB6EB080841462800FFF72AFF6A
:104A400050E05FEA880221006868AB6800EB8309E8
:104A50004846FDF78BFD41462800FFF71BFFB6EBEC
:104A60000802920004EB88016868AB6800EB8304DD
:104A70002000FDF77BFDB6EB080841462800FFF754
:104A800009FF2FE06878002803D002281DD00ED33C
:104A900028E0320021006868AB6800EB03042000C6
:104AA000FDF764FD31002800FFF7F4FE1AE0720004
:104AB00021006868AB6800EB43042000FDF756FD59
:104AC00031002800FFF7E6FE0CE0B2002100686824
:104AD000AB6800EB83042000FDF748FD310028009F
:104AE000FFF7D8FE2869861B2E6100E0052728788D
:104AF00010F0FB0028703800C0B2BDE8F2832DE949
:104B0000F04705000E001F00002D01D0012000E03D
:104B100000201400DFF8C08140F25B124146C0B2B1
:104B2000FEF763F8002C01D0012000E000204FF4D4
:104B3000AE724146C0B2FEF758F85FF000080020A0
:104B40000020002E02D15FF003088BE0297811F0DD
:104B5000030F03D020605FF006089CE02800FFF7F9
:104B6000EDFE2168884209D220605FF00708002826
:104B700004D1287810F0F70028708CE0287850F0E5
:104B800008002870D5F81490E868B9EB000920688F
:104B9000814522D36878002803D0022813D008D397
:104BA0005CE022686868E96801443000FDF7DEFCDB
:104BB00054E0226852006868E96800EB4101300067
:104BC000FDF7D4FC4AE0226892006868E96800EBCF
:104BD00081013000FDF7CAFC40E06878002803D06E
:104BE000022827D011D339E04A466868E9680144B1
:104BF000B2465046FDF7BAFC2268B2EB090269687A
:104C00004E443000FDF7B2FC28E05FEA49026868D4
:104C1000E96800EB4101B2465046FDF7A7FC226867
:104C2000B2EB09025200696806EB49063000FDF755
:104C30009DFC13E05FEA89026868E96800EB810186
:104C4000B2465046FDF792FC2268B2EB0902920090
:104C5000696806EB89063000FDF788FC287810F0BB
:104C6000F7002870FFB2002F15D128780B2802D149
:104C70005FF002080FE0287850F0020028702168E9
:104C80002800FFF714FE2969206841182961287857
:104C900010F0FD0028704046C0B2BDE8F087F8B5BE
:104CA00004000E0017001D00002C01D0012000E0C0
:104CB00000204FF407720849C0B2FDF796FF0020AC
:104CC00067600021217066700021A1600021E16011
:104CD00025616561C0B2F2BD5CD40810010009B263
:104CE000002908D4012210F01F018A401B4900B29C
:104CF000400941F820207047010009B2002908D47A
:104D0000012210F01F018A40154900B2400941F804
:104D100020207047020012B2002A04D44901114A2F
:104D200000B2115407E049010F4A00B210F00F0021
:104D3000104400F8041C7047002800D162B60B48EC
:104D40000168491C0160704772B60849086800286C
:104D500002D00868401E08600868704700E100E063
:104D600080E200E000E400E018ED00E08443022867
:104D700080B5FFF7E9FF01F087FD01BD80B5C9B23D
:104D800000B2FFF7C7FF01BD70B504000D001600AB
:104D9000200001F0ADFE2900B4F9000001F0E7FEAB
:104DA0003100C9B2B4F90200FFF7E8FFB4F902001C
:104DB000FFF7A2FFB4F90200FFF790FF70BD3600C5
:104DC00038B50400082C10D3DFF8B0521822DFF8F1
:104DD000B012280000F06AF90020E875E820DFF83A
:104DE000A4120860002000F099F9DFF89C02640129
:104DF000204432BDDFF894321B6862F31F4361F335
:104E00000F0383607047C0687047DFF884321B6807
:104E100062F31F4361F30F03036000687047C069CA
:104E2000C00FC0B27047F8B502000D00002A01D1D2
:104E3000052053E0DFF85C120868C0F30320002867
:104E400001D1002007E00868C0F303200E2801D13B
:104E5000012000E00220DFF84012400101EB0006D3
:104E60007FF07044DFF83472380011001022FDF733
:104E70007DFB38684008400038601021380000F0A1
:104E8000A9F9DFF81C323A000121300001F098FE48
:104E9000002804D0012021E0641E002C15D0300031
:104EA000FFF7BDFF0028F7D1002D08D010213800F2
:104EB00000F07EF9280039001022FDF757FB00F0C2
:104EC00041F8012803D1032008E0022006E000F0A9
:104ED00039F8002801D1002000E00420F2BD38B5E7
:104EE0000100002901D105202BE06A4A1068C0F3B7
:104EF0000320002801D1002007E01068C0F3032040
:104F00000E2801D1012000E00220634A400102EB9B
:104F10000004624D28001022FDF728FB2868400895
:104F2000400028601021280000F054F95C4B2A0052
:104F30000121200001F044FE002801D0012000E002
:104F4000002032BD10B5554C1021200000F030F982
:104F5000206810F07040B0F1204F01D1002008E02F
:104F6000206810F07040B0F1704F01D1012000E0D6
:104F7000022010BD38B50400FFF7E4FF050028004B
:104F8000C0B2022802D17FF070400DE0002C04D0A6
:104F9000200042491022FDF7E9FAEDB2002D01D1BF
:104FA000002001E03D48006832BD10F07041B1F1D1
:104FB000204F01D1002006E010F07041B1F1704F98
:104FC00001D07FF0704070473EB5364AD2E90045C7
:104FD000CDE90045ADF8021033490860684601F09C
:104FE00087FD0FF24101BDF9000001F0C0FD022074
:104FF000FFF7E6FE274A1168C1F30321002901D11A
:10500000002107E01168C1F303210E2901D101211C
:1050100000E002210022012313FA01F1FFF7EAFE6A
:1050200037BD000038B500200220FFF7C9FE04009C
:105030002000FFF7E8FE050016490868C0F30320CA
:10504000002801D1002007E00868C0F303200E28E3
:1050500001D1012000E002202900C140C80705D588
:1050600011490868002801D0086880472A00120CFE
:10507000ADB229002000FFF7C8FE31BD7042022802
:10508000CCD2081034430228001022403CDA081029
:1050900040DA08100000204000002240E0420228D0
:1050A00030430228A8D808102C43022801B58B07EA
:1050B0001AD1830724D1121F21D351F8043BA3F145
:1050C000013C2CEA030C1CF0803C04BF40F8043B7C
:1050D000F1E79CFA8CFCBCFA8CF1C1F118018B4011
:1050E000CB4040F8043B13E0042A09D311F8013BFC
:1050F000521E00F8013B5BB18B07F7D1D9E7121DB7
:105100005AB111F8013B521E00F8013B03B1F8D12E
:1051100011001CBF0022FDF7F5F901BD01BEFEE73D
:1051200080B5354A35490B6893423ED00A60344A0F
:1051300012684A62334A8A6202684A6042688A6038
:105140008268CA60C2680A6102694A6142698A610A
:105150008269CA61C2690A62F1EE102A12F0900FE8
:1051600023D0294A8A62026ACA62426A0A63826A50
:105170004A63C26A8A63026BCA63426B0A64826BC7
:105180004A64C26B8A64026CCA64426C0A65826CAF
:105190004A65C26C8A65026DCA65426D0A66826D97
:1051A0004A66C26D8A66006EC86601F027FD01BDC1
:1051B00001290EDB10F01F025118BFF34F8F134A65
:1051C0001060203020390129F9DABFF34F8FBFF387
:1051D0006F8F704701290EDB10F01F025118BFF3CB
:1051E0004F8F0B4A1060203020390129F9DABFF3C4
:1051F0004F8FBFF36F8F7047FAF9F8F7543E0228CC
:1052000028ED00E0A4A3A2A1ABAAA9A85CEF00E04E
:1052100068EF00E0DFF83C040068400B10F001008C
:105220007047DFF830040068000B10F00100704791
:10523000DFF82404016851F0010101600168C90729
:10524000FCD470471FB50400C9B2012924D16846B7
:10525000102100F035FA69462000FFF7E4FD010057
:10526000C9B2012902D1DFF8F4031EE00100C9B27E
:10527000022902D1DFF8E80317E0C0B2042802D106
:10528000DFF8E00311E0009800F0F6F800280CD1F8
:10529000FFF7CEFF002008E02000FFF720FE0028E7
:1052A00002D0DFF8B80300E0002004B010BD38B52C
:1052B00084B00C001500002C02D1DFF8AC033DE0F7
:1052C000206800F0C7F8012802D06068002802D1E9
:1052D000DFF8940332E06846102100F0F1F906206F
:1052E000009960F31F610091207A009960F30F210B
:1052F0000091607A009960F317410091E07A01997A
:1053000060F30F210191A07A019960F307010191E7
:10531000207B019960F31F61019120680290606811
:105320000390DFF84803A17A30F811106068FFF7A6
:1053300051FF2900C9B26846FFF784FF05B030BDB0
:1053400010B50400FFF766FF00280ED114F16C4081
:10535000B0F5403F01D2002026E0DFF81403041925
:10536000B4F5803F1FD200201EE014F16C40B0F570
:10537000C03F01D2002017E0DFF8F8020019B0F5B5
:10538000004F01D200200FE014F16B40B0F5C03F98
:1053900001D2002008E0DFF8E0020419B4F5004F64
:1053A00001D2002000E0012010BD10B50400FFF77D
:1053B00031FF002807D1DFF8B8020419B4F5803FA7
:1053C00011D2012010E0DFF8AC020019B0F5004F57
:1053D00001D2012008E0DFF8A0020419B4F5004F63
:1053E00001D2012000E0002010BD10B50400FFF73D
:1053F00018FF00280ED114F17040B0F57C1F01D2C7
:10540000002026E0DFF874020419B4F5003F1FD233
:1054100000201EE014F17040B0F5FC1F01D2002006
:1054200017E0DFF85C020019B0F5803F01D20020E0
:105430000FE014F16E40B0F5FC1F01D2002008E02F
:10544000DFF840020419B4F5803F01D2002000E0EB
:10545000012010BD10B504002000FFF771FF0028E7
:1054600001D1002007E02000FFF7BFFF002801D195
:10547000002000E0012010BD80B5FFF796FD002858
:1054800001D1002056E07FF07041884202D1DFF860
:10549000D4014FE0DFF8F011401A1CD0801E1DD05F
:1054A000401E1ED0401E1FD0401E20D0001F21D005
:1054B000873822D0401E23D0123824D0401E25D059
:1054C000401E26D0801E27D0801E28D0083829D024
:1054D00009382AD02CE05FF4A4002BE0DFF8AC01FF
:1054E00028E0DFF8AC0125E0DFF8A80122E0DFF8D2
:1054F0006C011FE0DFF8A0011CE0DFF8A00119E05B
:10550000DFF89C0116E0DFF89C0113E0DFF898015A
:1055100010E0DFF898010DE0DFF894010AE0DFF811
:10552000940107E0DFF8900104E0DFF8900101E06A
:10553000DFF8300102BD38B584B00C001500002C36
:1055400002D1DFF8240128E02068FFF783FF01285B
:1055500002D1DFF8140120E0207810F0030F02D010
:10556000DFF8040119E06846102100F0A9F81420C2
:10557000009960F31F6100912079009960F30F2179
:1055800000916079009960F31741009120680190C3
:105590002900C9B26846FFF755FE05B030BD38B5E1
:1055A00088B00C001500002C01D12F484FE0606836
:1055B000002801D12C484AE02068FFF7C1FE0128ED
:1055C00008D02068616810EB8100401EFFF7B8FE2C
:1055D000012801D124483AE06846102100F070F813
:1055E0002A20009960F31F61009120680190606893
:1055F000401E80B20299090C090408430290EDB2E2
:10560000012D1CD104A8102100F05AF804A9684605
:10561000FFF709FC0100C9B2012901D10F4816E0CA
:105620000100C9B2022901D10D4810E0C0B204281E
:1056300001D10C480BE00498FFF71EFF07E0684615
:10564000FFF74DFC002801D0044800E0002009B01D
:1056500030BD000000002440080024400400520037
:1056600010005200FF0052000F0052007CD70810BB
:105670000000FDEB0080FEEB0080FEEA0000C1EFC1
:105680000080E0EF0080E0ED010000F0010052003A
:1056900002005200030052000500520006005200B2
:1056A0000700520008005200090052000A00520090
:1056B0000B0052000C0052000D0052000E00520070
:1056C000002201F09DBA3700C9B202788A421AB1AD
:1056D0001CBF10F8012FF9E718BF002070473800F1
:1056E00080B500B906A005490B681BB12222002134
:1056F000984701E001F09DFA222002BD8C43022868
:10570000636F6E73747261696E742068616E646C2D
:1057100065723A20626164206D657373616765002C
:10572000C9B2830706D0521E22D310F8013B99421A
:10573000F7D11FE0083A13D302F1040241EA012134
:1057400041EA014150F8043B121F21BF4B40A3F135
:10575000013C2CEA030C1CF0803FF3D0C9B2001FBF
:10576000083210F8013B521E28BF91EA030FF8D807
:1057700018BF0120401E704710B5144600F002F813
:10578000226010BDC1F30A5343B14A0012F5001F55
:1057900028D2A3F2FE32A1EB0251704750EA410C2D
:1057A00020D001F0004C31EA0C01B1FA81F204BFC3
:1057B000B0FA80F3D2180B3AB2F120032CBF00FAF2
:1057C00003F1914041EA0C013EBFC2F1200C20FAE6
:1057D0000CF319439040524240F2FD33D21A01EBD0
:1057E000035170470022704741EA030C50EA4C0C09
:1057F00052EA0C0C4FF4001C09D307D01CEB410FEC
:105800009CBF1CEB430F8B4208BF824270471CEBCE
:10581000430FFBD8994208BF9042704741EA030CFE
:1058200050EA4C0C52EA0C0C4FF4001C09D307D080
:105830001CEB410F9CBF1CEB430F994208BF9042E9
:1058400070471CEB410FFBD88B4208BF8242704768
:1058500000B541EC100B104600F004F851EC100BB1
:1058600000BD00BF020030EE101B40F2FF7C37D4B9
:105870001CEA115313D063456BD09B18634504D2C7
:1058800001EB025120EE101B704701F0004141EA8C
:105890000C51002041EC100BAFF30080704710EE6C
:1058A000100B50EA410054D0B2F57F7F08D202EBD2
:1058B0005C010905002041EC110B20EE010B704743
:1058C0004FF0FE41002341EC113B20EE010BB2F5FD
:1058D0007E7230EE101B4FEA410342EB5353CDE78B
:1058E00052421CEA115316D0634532D09A4204D278
:1058F000A1EB025120EE101B70475B1ED21AA1EBE8
:10590000035120EE101B372A0CD3002001F0004178
:1059100041EC100BC0E710EE100B50EA410018D01C
:10592000372AF2D2C2EB5C021105002041EC110BC8
:10593000F1EE100A20F01F0121F4F851E1EE101AE7
:1059400020EE010BF1EE101AE1EE100A11F0080F33
:10595000A2D1704741EC100BBDEEC00B10EE100A47
:10596000704700EE100AB8EEC00B51EC100B7047F8
:1059700041EC100B43EC112B30EE410B51EC100BB2
:10598000704741EC100B43EC112B80EE010B51ECF6
:10599000100B704741EC100BBCEEC00B10EE100A60
:1059A000704700EE100AB8EE400B51EC100B704738
:1059B00041EC100B43EC112B20EE010B51EC100BC2
:1059C000704700002DE9F44FDFF8D822DFF8D83215
:1059D0001B68DFF8D8422468DFF8D4522D68DFF85E
:1059E000D4623668DFF8D0723F68DFF8D0C2DCF8E6
:1059F00000C0DFF8CCE2DEF800E0DFF8C882D8F8BB
:105A00000080DFF8C492D9F80090DFF8C0A2DAF87D
:105A100000A0002800F01581002900F012810A681A
:105A2000022A06D191F82620002A02D15FF0000B4D
:105A300003E0D1F804B0BBF1010B91F82420002A57
:105A400001D0012200E0002262F3104333F440430E
:105A50006BF30303022262F3196303600A7812F006
:105A6000030262F31964046491F82520002A01D02E
:105A7000012200E0002262F38615CA7E002A01D0CE
:105A8000012200E0002262F38A254A7E002A01D02A
:105A9000012200E0002262F308258A7E002A01D05C
:105AA000012200E0002262F349258A6B521E12F0A7
:105AB0000F0262F313450A69521E12F00702ED0845
:105AC000ED0015434A6962F304154A69520862F30E
:105AD000451585640A7B002A01D0012200E00022DE
