:020000041008E2
:100000000000082861DD081031E70810B9E2081087
:1000100035E7081039E708103DE708100000000038
:100020000000000000000000000000006DE3081068
:1000300041E708100000000045E7081049E70810F4
:100040006FD9081095D90810BBD90810E1D908104C
:1000500007DA08102DDA081053DA081079DA0810D8
:100060004DE7081051E7081055E7081059E7081048
:100070005DE7081061E7081065E7081069E70810F8
:100080002DE9F843002000200020DFF8705D0020FB
:10009000287001F0FBFB002001F086FC0223DFF852
:1000A000682D0021002001F0BAFD0223DFF85C2D4D
:1000B0000221002001F0B3FD0223DFF8542D0421BA
:1000C000002001F0ACFD0223DFF84C2D06210020BA
:1000D00001F0A5FD0223DFF8442D0021552001F099
:1000E0009EFD0223DFF8382D0221552001F097FDF7
:1000F0000223DFF8302D0421552001F090FD062168
:10010000582001F027FF2870002001F04DFC95F8E1
:1001100000902878012814D0C0F06386032800F0EE
:10012000AC804ED3052800F00682C0F05581072828
:1001300000F05D83C0F0AD82082800F01B8400F061
:1001400050BEDFF8E45C01232A000021002002F009
:10015000F3F80223DFF8D42C0021002001F05FFD2A
:100160002A680021322001F009FD0621582001F003
:10017000F1FE0400002001F017FC0EE00223DFF87E
:10018000B02C0021002001F04AFD0621582001F08A
:10019000E1FE0400002001F007FC052CEEDA002C43
:1001A0000AD02C600021002002F0ABF801232A00C5
:1001B0000021002002F005F9002001F0F5FB00F01D
:1001C00010BE5FFA89F9B9F101095FEAC909002493
:1001D00025E0012214EB0901002002F031F901228F
:1001E0005F21002002F071F9DFF84C5C012305EB80
:1001F00084025F21002002F09FF80223DFF83C0C0C
:1002000050F824206100C9B2002001F008FD55F823
:1002100024206100C9B2322001F0B0FC641C042C1F
:10022000D7DBDFF8144C002355224846010089B281
:10023000002001F01FFF20600223552219F1010167
:1002400089B2002001F016FF60600423552219F1E5
:10025000020189B2002001F00DFFA06006235522A3
:1002600019F10309494689B2002001F003FFE0605B
:10027000002001F099FB00F0B4BD5FFA89F9B9F1F3
:1002800001095FEAC909002425E0012214EB0901F4
:10029000002002F0D5F801225F21002002F015F9BC
:1002A000DFF89C5B012305EB84025F21002002F054
:1002B00043F80223DFF88C0B50F824206100C9B208
:1002C000002001F0ACFC55F824206100C9B23220B6
:1002D00001F054FC641C042CD7DBDFF8644B0023D2
:1002E00055224846010089B2002001F0C3FE20607B
:1002F0000223552219F1010189B2002001F0BAFE52
:1003000060600423552219F1020189B2002001F036
:10031000B1FEA0600623552219F1030189B2002025
:1003200001F0A8FEE060002001F03EFB042527E07C
:10033000012215EB0901002002F082F801225F2161
:10034000002002F0C2F8012304EB85025F210020A7
:1003500001F0F2FF0223DFF8EC0A50F8252015F136
:10036000FC014900C9B2002001F059FC54F82520D5
:1003700015F1FC014900C9B2322001F0FFFB6D1CF0
:10038000082DD5DB0023552219F1040189B2002084
:1003900001F070FE20610223552219F1050189B296
:1003A000002001F067FE60610423552219F1060167
:1003B00089B2002001F05EFEA0610623552219F1EA
:1003C0000709494689B2002001F054FEE06100208F
:1003D00001F0EAFA00F005BD5FFA89F9B9F1010907
:1003E0005FEAC909002425E0012214EB090100207D
:1003F00002F026F801225F21002002F066F8DFF803
:10040000485A012305EB84025F21002001F094FF8C
:100410000223DFF8380A50F824206100C9B2002016
:1004200001F0FDFB55F824206100C9B2322001F033
:10043000A5FB641C042CD7DBDFF80C4A00235522F3
:100440004846010089B2002001F014FE206002231A
:10045000552219F1010189B2002001F00BFE606004
:100460000423552219F1020189B2002001F002FE95
:10047000A0600623552219F1030189B2002001F082
:10048000F9FDE060002001F08FFA042527E0012249
:1004900015EB0901002001F0D3FF01225F210020AC
:1004A00002F013F8012304EB85025F21002001F024
:1004B00043FF0223DFF8940950F8252015F1FC01D1
:1004C0004900C9B2002001F0AAFB54F8252015F11B
:1004D000FC014900C9B2322001F050FB6D1C082D0F
:1004E000D5DB0023552219F1040189B2002001F067
:1004F000C1FD20610223552219F1050189B20020B6
:1005000001F0B8FD60610423552219F1060189B29A
:10051000002001F0AFFDA0610623552219F1070963
:10052000494689B2002001F0A5FDE061002001F0FC
:100530003BFA00F056BC5FFA89F9B9F101095FEAAC
:10054000C909002425E0012214EB0901002001F073
:1005500077FF01225F21002001F0B7FFDFF8685C20
:10056000012305EB84025F21002001F0E5FE022358
:10057000DFF8580C50F824206100C9B2002001F0C7
:100580004EFB55F824206100C9B2322001F0F6FA82
:10059000641C042CD7DBDFF8304C0023552248467E
:1005A000010089B2002001F065FD20600223552280
:1005B00019F1010189B2002001F05CFD60600423A3
:1005C000552219F1020189B2002001F053FDA0600B
:1005D0000623552219F1030189B2002001F04AFDDA
:1005E000E060002001F0E0F9042527E0012215EB8E
:1005F0000901002001F024FF01225F21002001F009
:1006000064FF012304EB85025F21002001F094FECA
:100610000223DFF8B80B50F8252015F1FC01490042
:10062000C9B2002001F0FBFA54F8252015F1FC01B5
:100630004900C9B2322001F0A1FA6D1C082DD5DBAA
:100640000023552219F1040189B2002001F012FDA6
:1006500020610223552219F1050189B2002001F021
:1006600009FD60610423552219F1060189B20020B9
:1006700001F000FDA0610623552219F10709494642
:1006800089B2002001F0F6FCE061002001F08CF955
:10069000A7E35FFA89F9B9F101095FEAC909002402
:1006A00025E0012214EB0901002001F0C9FE01221E
:1006B0005F21002001F009FFDFF8B45C012305EBA6
:1006C00084025F21002001F037FE0223DFF8740767
:1006D00050F824206100C9B2002001F0A0FA55F8BA
:1006E00024206100C9B2322001F048FA641C042CB5
:1006F000D7DBDFF87C4C002355224846010089B245
:10070000002001F0B7FC20600223552219F10101FD
:1007100089B2002001F0AEFC60600423552219F17B
:10072000020189B2002001F0A5FCA0600623552239
:1007300019F1030189B2002001F09CFCE060002067
:1007400001F032F9042527E0012215EB0901002010
:1007500001F076FE01225F21002001F0B6FE0123A8
:1007600004EB85025F21002001F0E6FD0223DFF8A3
:10077000D40650F8252015F1FC014900C9B200202B
:1007800001F04DFA54F8252015F1FC014900C9B2D9
:10079000322001F0F3F96D1C082DD5DB0023552222
:1007A00019F1040189B2002001F064FC20610223E8
:1007B000552219F1050189B2002001F05BFC60614E
:1007C0000423552219F1060189B2002001F052FCE0
:1007D000A0610623552219F10709494689B2002074
:1007E00001F048FCE061002001F0DEF8F9E25FFA78
:1007F00089F9B9F101095FEAC909002425E001225C
:1008000014EB0901002001F01BFE01225F210020F2
:1008100001F05BFEDFF8005C012305EB84025F2141
:10082000002001F089FD0223DFF8180650F824208B
:100830006100C9B2002001F0F2F955F824206100EE
:10084000C9B2322001F09AF9641C042CD7DBDFF81E
:10085000C84B002355224846010089B2002001F010
:1008600009FC20600223552219F1010189B2002000
:1008700001F000FC60600423552219F1020189B2E5
:10088000002001F0F7FBA0600623552219F10301B7
:1008900089B2002001F0EEFBE060002001F084F856
:1008A000042527E0012215EB0901002001F0C8FD15
:1008B00001225F21002001F008FE012304EB8502E4
:1008C0005F21002001F038FD0223DFF8780550F8A1
:1008D000252015F1FC014900C9B2002001F09FF963
:1008E00054F8252015F1FC014900C9B2322001F06D
:1008F00045F96D1C082DD5DB0023552219F10401A3
:1009000089B2002001F0B6FB20610223552219F1C3
:10091000050189B2002001F0ADFB6061042355227E
:1009200019F1060189B2002001F0A4FBA0610623A1
:10093000552219F10709494689B2002001F09AFBB6
:10094000E061002010E004EB800191ED000AB8EEB8
:10095000400ADFED660A20EE200ADFF8201C01EBDA
:10096000800181ED000A401C0828ECDB002001F02A
:100970001BF836E25FFA89F9B9F101095FEAC909A2
:10098000DFF8FC5B64232A004946002001F0D4FC18
:100990000223DFF8F02B0021002001F040F995ED53
:1009A000000BBDEEC00B10EE102A0021322001F02A
:1009B000E5F80223DFF8D02B0421002001F02FF905
:1009C00095ED020BBDEEC00B10EE102A0421322073
:1009D00001F0D4F80621582001F0BCFA03E0002110
:1009E000582001F0B7FA3328F9DA002805D000EED4
:1009F000100AB8EEC00B85ED000B0621582001F05F
:100A0000A9FA002805D000EE100AB8EEC00B85ED5B
:100A1000020B002000F0C8FF0223DFF8B82C0021F1
:100A2000002001F0FCF895ED040BBDEEC00B10EEBC
:100A3000102A0021282001F0A1F80223DFF8982CC9
:100A40000121002001F0EBF80223DFF8902C0221B5
:100A5000002001F0E4F80223DFF8842C04210020B8
:100A600001F0DDF895ED060BBDEEC00B10EE102A7F
:100A70000421282001F082F80223DFF8682C0521E8
:100A8000002001F0CCF80223DFF85C2C06210020C6
:100A900001F0C5F80021582001F05CFA0328F9DACA
:100AA000002805D000EE100AB8EEC00B85ED040B4F
:100AB0000621582001F04EFA0328F9DA002805D063
:100AC00000EE100AB8EEC00B85ED060B002000F01A
:100AD0006BFF95ED040BB7EE002BB4EE420BF1EE7D
:100AE00010FA40F06481002632E000BF0AD7233CB0
:100AF00000EE100AB8EEC00B300080B2400128446E
:100B000080ED0E0B20E02100C9B202290AD140423B
:100B100000EE100AB8EEC00B300080B2400128444D
:100B200080ED0C0B04215A2001F014FA00280BD0A0
:100B3000DFF8A01C8842DBD1300080B2400128449D
:100B400000220023C0E90E23002000F02DFF761CB8
:100B500095ED000BB0EE002BB8EE003B00EE023B33
:100B6000300080B200EE100AB8EE400BB4EE430B3A
:100B7000F1EE10FA40F1F480320092B20021002030
:100B800000F0FCFF02239EA20021322001F047F872
:100B90009CA702233A000221002001F040F8300017
:100BA00080B24001284490ED080BBDEEC00B10EE62
:100BB000102A02211E2000F0E1FF0FF25828022324
:100BC00042460421002001F02AF8300080B24001A2
:100BD000284490ED0A0BBDEEC00B10EE102A042144
:100BE0001E2000F0CBFF0021582001F0B3F90328AC
:100BF000F9DA002800D004000621582001F0AAF9F3
:100C000000282BD0DFF8CC1B884209D1300080B2FD
:100C1000400105EB000200200021C2E908011DE0AF
:100C20002100C9B201290AD100EE100AB8EEC00BAA
:100C3000300080B24001284480ED080B0EE0210016
:100C4000C9B202290AD1404200EE100AB8EEC00B28
:100C5000300080B24001284480ED080B002158206C
:100C600001F078F9002817D0DFF8681B884209D115
:100C7000300080B2400105EB000200200021C2E9F3
:100C80000A0109E000EE100AB8EEC00B300080B295
:100C90004001284480ED0A0B002000F085FE320060
:100CA00092B20021002000F069FF022361A200211E
:100CB000322000F0B4FF02233A000221002000F0AD
:100CC000AEFF300080B24001284490ED0C0BBDEE29
:100CD000C00B10EE102A02211E2000F04FFF02234D
:100CE00042460421002000F09AFF300080B240010B
:100CF000284490ED0E0BBDEEC00B10EE102A04211F
:100D00001E2000F03BFF01215A2001F023F90328A7
:100D1000F9DA002800D0040002215A2001F01AF963
:100D200000283FF4FFAEDFF8AC1A884208D130004B
:100D300080B24001284400220023C0E90C23F1E6E0
:100D40002100C9B201297FF4DEAE00EE100AB8EE30
:100D5000C00B300080B24001284480ED0C0BE1E66E
:100D60000223DFF86C2A0221002000F058FF95EDE5
:100D7000C60BBDEEC00B10EE102A0221322000F08F
:100D8000FDFE02215A2001F0E5F800281CD0DFF812
:100D9000441A884204D100200021C5E9C60113E0AD
:100DA00000EE100AB8EEC00B85EDC60B0CE095ED19
:100DB000040BB0EE002BB4EE420BF1EE10FA03D1AF
:100DC0000120DFF8601A0870002000F0EDFD4946B0
:100DD000002001F096FA64232A004946002001F021
:100DE000F0FA00F083FC00F0CDFA00F017FB00F001
:100DF000CDFB00F0BDFCBDE8F18300009347022865
:100E00004100000058000000C0E50810C8E50810C7
:100E1000D0E5081059000000D8E50810E0E50810FA
:100E2000E8E50810F0E5081044470228F8E5081046
:100E300000E408104200000030450228E80A0228B9
:100E4000D0450228C80A022810450228F80A0228BC
:100E50002DE9F0472DED028B82B00020002000200C
:100E6000DFF874490020207000F010FD002000F031
:100E70009BFD0223DFF864290021002000F0CFFE53
:100E80000223DFF85C290221002000F0C8FE0223C3
:100E9000CCA20421002000F0C2FE0621582001F05F
:100EA00059F82070002000F07FFD2078207801287C
:100EB00006D0C0F08281032800F07F8155D37CE109
:100EC00001225F21002001F0BBFA01225F210020F6
:100ED00001F0FBFA01236A465F21002001F02CFAA1
:100EE0000223DFF800290021002000F098FE0223F1
:100EF000DFF8F4280221002000F091FE0223DFF841
:100F0000EC280421002000F08AFE009A0021322003
:100F100000F034FE0621582001F01CF8002810D102
:100F20000120DFF8CC1808700020DFF8C81808701E
:100F30000020009001236A465F21002001F041FA61
:100F40000FE00020DFF8A81808700120DFF8A418CF
:100F500008700120009001236A465F21002001F003
:100F600030FA002000F020FD27E10223DFF8882876
:100F70000021002000F053FE0621582000F0EAFF77
:100F80000400002000F010FD0127DFF87058DFF8A2
:100F90007068B088288033E00020DFF87C1801EB0F
:100FA000870141F8080C0AEBC70090ED000B0AEB33
:100FB000C700083890ED001B30EE411B09EBC7005D
:100FC00090ED000B09EBC700083890ED002B30EED8
:100FD000420B01F0B3FA20EE080BB0EEC00BBCEEF2
:100FE000C00BE34800EB8700083880ED000A7F1C47
:100FF00098F82D02401C88F82D02002000F0D4FC47
:10100000BC42C0F28980DFF8FC8798F82D220021CD
:10101000322000F0B3FD0223DFF8EC27022100208C
:1010200000F0FDFD2888C02803D1B088B0F5E06F3E
:1010300008D02888B0F5E06F02D1B088C02801D070
:10104000002065E0B0882880DFF8C097DFF8C0078F
:1010500009EBC70110F5A46292ED000B81ED000BC6
:10106000DFF8B0A70AEBC70110F5A56090ED000B03
:1010700081ED000B022FBADB09EBC700083890EDB9
:10108000000B09EBC70090ED001B30EE410B0AEBA3
:10109000C700083890ED001B0AEBC70090ED002B4D
:1010A00031EE421B20EE000B01EE010B01F08AFA3B
:1010B0009FEDB02B20EE020BBCEEC00BD64800EB30
:1010C0008700083880ED000A9FEDAC8B0AEBC70063
:1010D00090ED000B0AEBC700083890ED001B30EED6
:1010E000411B09EBC70090ED000B09EBC700083866
:1010F00090ED002B30EE420B01F020FA20EE080BB1
:10110000B5EE400BF1EE10FA7FF746AF012044E751
:101110000A2887DA401CFBE7102400250AE0012397
:10112000DFF8F40600EB85022100002001F049F908
:10113000641C6D1C082DF2DB2824002509E0012326
:101140008B4800EB85022100002001F03AF9641C75
:101150006D1C082DF3DB00200190AF4D2E6801239C
:1011600001AA3021002001F0E7F80198002802D000
:101170000198286000E02E60002618E0012305EBAE
:1011800086022100002001F01CF9641C05EB86009A
:1011900090ED000AB8EE400ADFED9E0A20EE200A2C
:1011A000DFF8C80600EB860080ED000A761C082EEA
:1011B000E4DB002000F0F8FBFFE702B0BDEC028B9F
:1011C000BDE8F0873320000050450228180B0228A4
:1011D00038B5DFF804060078052858D1DFF8404616
:1011E0000123042294ED130AB7EEC00A0021002067
:1011F00000F096FD0123042294ED140AB7EEC00A14
:101200000121002000F08CFD0123042294ED150A39
:10121000B7EEC00A0221002000F082FD0123022265
:1012200094ED060AB7EEC00A0321002000F078FD15
:101230000123022294ED070AB7EEC00A0421002020
:1012400000F06EFDDFF8D45501230422B5F910003B
:1012500000EE100AB8EEC00B04213C2000F060FD47
:101260000123022294ED080AB7EEC00A05210020EE
:1012700000F056FD01230422B5F9120000EE100A19
:10128000B8EEC00B05213C2000F04AFD6FE0DFF80E
:1012900090450123042294ED130AB7EEC00A002101
:1012A000002000F03DFD0123042294ED140AB7EE66
:1012B000C00A0121002000F033FD0123042294ED37
:1012C000150AB7EEC00A0221002000F029FD012313
:1012D0000422DFF8500590ED300AB7EEC00A022173
:1012E0003C2000F01DFD0123022294ED060AB7EE1A
:1012F000C00A0321002000F013FD01230422DFF8BF
:101300002805007800EE100AB8EE400B03213C20BF
:1013100000F006FD0123022294ED070AB7EEC00A91
:101320000421002000F0FCFC01230422DFF8FC046F
:1013300090ED000AB7EEC00A04213C2000F0F0FC5A
:101340000123022294ED080AB7EEC00A052100200D
:1013500000F0E6FC01230422DFF82005007800EE0F
:10136000100AB8EE400B05213C2000F0D9FC31BD3D
:1013700070450228000000000000594000000000F5
:10138000DCA54C40F8B508250020461CDFF8A04439
:10139000012304EB80022900002000F0CDFF6D1C2A
:1013A000771C012304EB86022900002000F0C4FF13
:1013B0006D1C7E1C012304EB87022900002000F035
:1013C000BBFF6D1C771C012304EB86022900002063
:1013D00000F0B2FF6D1C7E1C012304EB8702290084
:1013E000002000F0A9FF6D1C701C012304EB860295
:1013F0002900002000F0A0FF6D1C002004EB8001FC
:1014000091ED000AB8EE400ADFF8181481ED300AB9
:10141000401CF1BD0AD7233CB0450228F8B518247A
:101420000020461CDFF80C54012305EB800221004C
:10143000002000F081FF641C771C012305EB86026D
:101440002100002000F078FF641C7E1C012305EBC6
:1014500087022100002000F06FFF641C771C01232D
:1014600005EB86022100002000F066FF641C7E1C54
:10147000012305EB87022100002000F05DFF641CC2
:10148000771C012305EB86022100002000F054FFA9
:10149000641C7E1C012305EB87022100002000F064
:1014A0004BFF641C012305EB86022100002000F0A5
:1014B00043FF0020E04905EB800292ED000AB8EE00
:1014C000400A81ED050A401C05EB800292ED000AFE
:1014D000B8EE400A81ED060A401C05EB800292ED51
:1014E000000AB8EE400A81ED070A401CD3499FED7F
:1014F0009E0B05EB800292ED001AB8EE411B21EE27
:10150000001BB7EEC11B81ED051A401C05EB8002E4
:1015100092ED001AB8EE411B21EE001BB7EEC11B85
:1015200081ED061A401C05EB800292ED001AB8EE20
:10153000411B21EE000BB7EEC00B81ED070A401CEA
:10154000BF499FEDCF0B05EB800292ED001AB8EE7C
:10155000411B21EE001BB7EEC11B81ED051A401C9B
:1015600005EB800090ED001AB8EE411B21EE000B58
:10157000B7EEC00B81ED060AF1BD000090450228D0
:10158000F035022800E6081050E40810F8B52025D0
:101590000020461CAB4C012304EB800229000020F4
:1015A00000F0CAFE6D1C771C012304EB86022900A3
:1015B000002000F0C1FE6D1C7E1C012304EB87029D
:1015C0002900002000F0B8FE6D1C771C012304EBFD
:1015D00086022900002000F0AFFE6D1C7E1C012356
:1015E00004EB87022900002000F0A6FE6D1C701C91
:1015F000012304EB86022900002000F09DFE6D1CF3
:101600000021884B54F8210083F8D400491C4A1C5F
:1016100093F8D400002802D19FED8B0A01E09FEDE2
:101620008B0A04EB8100D0ED000AB8EE601B9FED41
:10163000883B21EE031BB8EEC00B21EE000BB7EE8A
:10164000C00B83ED340A844804EB820191ED000A5B
:10165000B8EE400A80ED050A521C04EB820191EDC0
:10166000000AB8EE400A80ED060A521C04EB820123
:1016700091ED000AB8EE400A80ED070A521C774847
:101680009FED7F0B04EB820191ED001AB8EE411B38
:1016900021EE001BB7EEC11B80ED051A521C04EBB6
:1016A000820191ED001AB8EE411B21EE001BB7EE4E
:1016B000C11B80ED061A521C04EB820191ED001A49
:1016C000B8EE411B21EE000BB7EEC00B80ED070A10
:1016D000F1BD000008E6081010E6081018E6081032
:1016E00020E6081028E6081030E6081070B5282417
:1016F000002509E001235A4800EB85022100002063
:1017000000F01AFE641C6D1C082DF3DB002518E0A8
:10171000544E012306EB85022100002000F00CFE50
:10172000641C06EB850090ED000AB8EE400ADFED80
:101730004E0A20EE200A4D4800EB850080ED000A9D
:101740006D1C082DE4DB1024002509E0012332483C
:1017500000EB85022100002000F0EEFD641C6D1CF2
:10176000082DF3DB70BD00009A9999999999B93FBA
:1017700010B53F4C012322000021002000F0DCFDC9
:10178000284821680166016E012906D01ED303296D
:1017900012D00AD3042916D018E0002180F86C106A
:1017A0000120344981F8E00010E0002180F87C102D
:1017B00000203149087009E0002180F89C100020C9
:1017C0003149087002E0002180F8A41010BD00002B
:1017D00038E608109F8601009347022840E608106B
:1017E00048E6081050E6081058E6081060E60810B1
:1017F00090470228D10B02285CE40810CC0B022889
:10180000B04602289808022868E40810F03D022833
:1018100090300228903E0228D04502286C460228CB
:10182000303F0228283C02288B470228E046022845
:101830003045022810450228E842022828430228A1
:10184000A84302285045022801000000FFFFFFFFC7
:101850002D431CEBE2361A3FE84302286843022876
:1018600070450228B04502280AD7233C904502283B
:1018700044470228D80B0228642502288C470228F6
:101880007B14AE47E17A843FA427022880B500F09C
:10189000B3FE482000F01DFF00F0FAFE012000F02A
:1018A00018FF00F0F5FE00F0CEFE01BD10B500F00F
:1018B000A3FE4F2000F00DFF00F0EAFE012000F033
:1018C0003BFF040000F0BFFE2000C0B210BDF0B42A
:1018D0000246106895681318506803EB5004C0075F
:1018E00048BF4D44A3422DD013F8016B16F00300FE
:1018F00004BF13F8010BC01C31090F2907D113F8DD
:10190000011B0F3103E013F8017B05F8017B401E3A
:10191000F9D10029E6D013F8010BC6F38106032E96
:1019200008BF13F8016B00EB062040422844002654
:10193000B71E8F421EBF10F8017B05F8017B761C95
:10194000F6D1CFE7F0BC02F10C00704710B50400EF
:1019500000F052FE782000F0BCFE00F099FE00205E
:1019600000F0B7FE00F094FE2000C0B200F0B1FE1F
:1019700000F08EFE00F067FE10BD10B5040000F010
:101980003BFE782000F0A5FE00F082FE402000F033
:10199000A0FE00F07DFE2000C0B200F09AFE00F034
:1019A00077FE00F050FE10BD70B50400002509E080
:1019B0002000C0B2FFF7E1FF761C3000C0B28028E3
:1019C000F6DB6D1C2800C0B208280CDAB5F1500017
:1019D000C0B2FFF7BBFF0020FFF7B8FF1020FFF7F2
:1019E000B5FF0026E9E770BD10B5072300220121ED
:1019F000392000F09AFF0723002201213B2000F04C
:101A000094FF0121392000F036FFAE20FFF79EFF42
:101A10000020FFF79BFF1020FFF798FF4020FFF703
:101A200095FF8120FFF792FFCF20FFF78FFFA020C7
:101A3000FFF78CFFC020FFF789FFA620FFF786FF86
:101A4000A820FFF783FF3F20FFF780FFD320FFF799
:101A50007DFF0020FFF77AFFD520FFF777FF80207A
:101A6000FFF774FFD920FFF771FFF120FFF76EFF3A
:101A7000DA20FFF76BFF1220FFF768FFDB20FFF78C
:101A800065FF4020FFF762FF2020FFF75FFF022085
:101A9000FFF75CFF8D20FFF759FF1420FFF756FF7B
:101AA000A420FFF753FFA620FFF750FFAF20FFF75A
:101AB0004DFF0020FFF778FF0020002400E0641CA9
:101AC0002000C0B20C280BDA2000C0B2DFF8781476
:101AD00048600B212000C0B200F0AAFB0028EED025
:101AE0000A20DFF86414086010BD10B50400B1F1DD
:101AF0005000C0B2FFF72AFF2000C0B2000950F02A
:101B00001000C0B2FFF722FF14F00F0454F00104DC
:101B10002000C0B2FFF71AFF10BDF8B505000E0097
:101B2000140010343100C9B22800C0B2FFF7DDFF45
:101B30000020002709E0DFF814042100C9B217EBE8
:101B40000111405CFFF719FF7F1C082FF3DB761CA7
:101B50003100C9B22800C0B2FFF7C7FF00250AE074
:101B6000DFF8E8032100C9B215EB01110844007A3F
:101B7000FFF703FF6D1C082DF2DBF1BDF8B584B053
:101B800004000D00160000200020102100226F46E6
:101B9000380000F011FF002E24D442F2107096FBA2
:101BA000F0F100FB11604FF47A7190FBF1F00090BE
:101BB0004FF47A70694696FBF0F200FB12606422E3
:101BC00090FBF2F04860642096FBF0F200FB12609C
:101BD0000A2290FBF2F088600A2096FBF0F100FBED
:101BE000116603960020002613E068463100C9B252
:101BF00050F821202000C0B2792801DB00246D1CA0
:101C0000D2B22900C9B22000C0B2FFF786FF083463
:101C1000761C3000C0B20428E7DB05B0F0BD2DE92A
:101C2000F84304000D001600002000200027DBB25E
:101C3000012B16D0022B40D070E0BA494A46D2B2EE
:101C40000620424301EB02004146C9B2405CFFF767
:101C500094FE18F101084046C0B20628EDDBA41D31
:101C60007F1C3800C0B2305C002813D03800C0B2EE
:101C7000305CB0F120092000C0B27F2801DB0024D5
:101C80006D1C2900C9B22000C0B2FFF72EFF5FF023
:101C90000008E0E742E0AD484146C9B2090151FA07
:101CA00089F10844007AFFF768FE19F101094846F6
:101CB000C0B20828EFDB08347F1C3800C0B2305CAB
:101CC00000282BD03800C0B2305CB0F120082000D2
:101CD000C0B2792801DB00246D1C2900C9B22000A4
:101CE000C0B2FFF702FF5FF000090AE097484146E3
:101CF000C9B2090151FA89F1405CFFF73EFE19F1C2
:101D000001094846C0B20828F0DB691CC9B22000AE
:101D1000C0B2FFF7EAFE5FF00009C8E7BDE8F18353
:101D20002DE9F8432DED028B86B004000D00B0EED6
:101D3000408B16001F0002A87B490E2200F070FEA7
:101D40009FED7C1BB4EE418BF1EE10FA02DBBCEE92
:101D5000C80B03E0B1EE480BBCEEC00B8DED000AE2
:101D60009FED720B28EE001B9FED723BB4EE431B00
:101D7000F1EE10FA06DB28EE000B51EC100B00F030
:101D8000A3FE07E09FED6D1B28EE010B51EC100B3D
:101D900000F09AFEE8466B4A002300F0B9FEC8F84E
:101DA0000420B5EE408BF1EE10FA02D8BFEE000B26
:101DB00001E0B7EE000BB7EE002BB4EE420BF1EEF4
:101DC00010FA01D1202000E02D208DF808000099A4
:101DD0005F48B1FBF0F200FB121142F21072B1FB4E
:101DE000F2F130318DF80910009A42F21071B2FB15
:101DF000F1F301FB13224FF47A73B2FBF3F23032AA
:101E00008DF80A20009B4FF47A72B3FBF2FC02FBC0
:101E10001C335FF0640CB3FBFCF330338DF80B30F4
:101E2000DDF800C05FF0640E02ABBCFBFEF90EFBF8
:101E300019CC5FF00A0EBCFBFEFC1CF1300C83F8E1
:101E400004C0DDF800E05FF00A0CBEFBFCF90CFBFF
:101E500019EE1EF1300E8DF80DE0D8F804C0DFF851
:101E6000E4E0BCFBFEF90EFB19CCDFF8E4E0BCFBC0
:101E7000FEFC1CF1300C83F807C0D8F804C0BCFB92
:101E8000F0FE00FB1ECC42F21070BCFBF0F03030D4
:101E90008DF81000D8F80400B0FBF1FC01FB1C0029
:101EA0004FF47A71B0FBF1F030308DF81100D8F8B2
:101EB0000400B0FBF2F102FB11006421B0FBF1F071
:101EC00030309872D8F804006421B0FBF1F201FBC5
:101ED00012000A21B0FBF1F030308DF81300D8F871
:101EE00004000A21B0FBF1F201FB120030308DF842
:101EF00014003000C0B2072801DB0626FFE73B00D4
:101F000029002000002202ACF6B23444E271DBB2B8
:101F100002AAC9B2C0B2FFF782FE06B0BDEC028BC6
:101F2000BDE8F183C4D3081014E4081000000000D9
:101F300080842E410000000000000000000000002E
:101F400080842EC140420F00E844022810B50810DA
:101F5000A08601002DE9F84F05000E0000200027A3
:101F60005FF000085FF0000A00205FF00009002425
:101F700031E0B8F10A0F27D10A209AFBF0FA23E0EA
:101F80005FF00C08442F05D119F10109B9F1C90F0F
:101F900000DB641CB8F10A0FEBD0B8F10B0FE8D0EE
:101FA000B8F10C0FE5D04FF47A709AFBF0F00028EE
:101FB00005D04FF47A709AFBF0F100FB11AA0A20C9
:101FC000514682460AFB018A52463100C9B22800B6
:101FD000C0B2FFF7D3FDB8F10B0F48D0002C46D1AB
:101FE000BB46FFF763FC0700BBEB070BBBF1400FE1
:101FF000C6D13800042836D005282BD0062820D09A
:10200000072815D00C2828D00D2820D00E2815D050
:102010000F280AD0142823D0152815D016280AD046
:10202000172823D15FF00108ACE75FF00208A9E7A9
:102030005FF00308A6E75FF00408A3E75FF0050878
:10204000A0E75FF006089DE75FF007089AE75FF0FA
:10205000080897E75FF0090894E75FF0000891E748
:102060005FF00A088EE75FF00B088BE78AE75046BF
:10207000BDE8F28F2DE9FD4F84B00F0000205FF026
:1020800000090025002400200090002000265FF0B9
:1020900000085FF0000A00E001240B2D00F0B18081
:1020A000002E40F0AE80CB46FFF700FC8146BBEB34
:1020B000090BBBF1400F31D1484604282BD005282D
:1020C00023D006281BD0072813D00C281FD00D289A
:1020D00019D00E2811D00F2809D0142819D015288E
:1020E0000FD0162807D0172817D1012517E0022591
:1020F00015E0032513E0042511E005250FE0062572
:102100000DE007250BE0082509E0092507E000257B
:1021100005E00A2503E00B2501E000E00C25B9F1FC
:10212000440F0DD11AF1010ABAF1C90F08DB761C70
:1021300001233E4A390089B29DF8100000F041F9B0
:102140000A2D19D00B2D17D00C2D15D000984FF457
:102150007A71B0FBF1F0002808D04FF47A70009942
:10216000009AB2FBF0F200FB1210009000980A21D6
:1021700001FB0050009003E00A2D01D100200090E7
:10218000009A29A101A800F0DBFD022301AA9DF815
:1021900018109DF81400FFF742FD0098002824D184
:1021A000002D3FF479AF0A2D01D1002475E70B2DE6
:1021B0007FF473AF002C0FD101236A46390089B236
:1021C000002000F0B9F801236A46390089B29DF871
:1021D000100000F0F6F860E70123144A390089B2D4
:1021E0009DF8100000F0EDF857E70B2D7FF455AF88
:1021F00001236A46390089B29DF8100000F0E1F829
:102200004BE7009818F10208B8F1070F01DB5FF007
:102210000008B8F1050F00DB0021002100910C211E
:1022200007B0BDE8F08F0000253564004047022864
:102230007FB504000D000020009001236A462900AC
:10224000C9B2002000F078F800982100C9B2884295
:1022500033D100200390012303AA2900C9B2002032
:1022600000F06AF803980099884224D000200020EA
:1022700002900020019040F2FF3618E0012302AAEC
:1022800031002800C0B200F057F8012301AA310044
:102290002000C0B200F050F80198002806D10123B8
:1022A00002AA31002000C0B200F08BF8761E40F286
:1022B000CF308642E2DA012000E0002004B070BD99
:1022C00038B50C00602C01D2012000E00020974DB1
:1022D00036222900C0B200F0E2FE372229009448DD
:1022E000007800F0DCFE0121E40214F1A05420008B
:1022F00001F018F8002801D1012000E00020C0B250
:1023000032BD38B50C00602C01D2012000E0002065
:10231000864D46222900C0B200F0C1FE47222900A6
:102320008348007800F0BBFE0121E40214F1A054C0
:10233000200000F0B8FF31BDF8B50E0014001D00FC
:102340000020602E01D2012000E00020774F5922AA
:102350003900C0B200F0A3FE40F20120854201D254
:10236000012000E000205A223900C0B200F097FEA0
:102370005B2239006E48007800F091FE5FF0A050BB
:10238000F602B60800EB8601AA000B00012A0EDB5C
:1023900013F01F008218BFF34F8F6648036020338D
:1023A000203A012AF9DABFF34F8FBFF36F8F002075
:1023B00004E002018A582260241D401CA842F8D380
:1023C000F1BD2DE9F04107000C0015001E00602C46
:1023D00001D2012000E00020DFF850817422414644
:1023E000C0B200F05CFE40F20120864201D2012022
:1023F00000E0002075224146C0B200F050FE762277
:1024000041464B48007800F04AFE21003800FFF7B3
:1024100057FF002803D021003800FFF772FFE402C5
:1024200014F1A054002707E001222900200000F049
:10243000BFFF241D2D1D7F1CB742F5D3BDE8F081E1
:1024400070B50D0014000020602D01D2012000E0C5
:102450000020364E92223100C0B200F020FE40F241
:102460000120844201D2012000E0002093223100AB
:10247000C0B200F014FE942231002D48007800F024
:102480000EFE5FF0A050ED02AD0800EB8501A2004A
:102490000B00012A0EDB13F01F008218BFF34F8FD1
:1024A000244803602033203A012AF9DABFF34F8F22
:1024B000BFF36F8F002005E051F820201E4B43F83A
:1024C0002020401CA042F7D370BD70B50C00150051
:1024D000602C01D2012000E00020144EAB2231001C
:1024E000C0B200F0DCFD40F20120854201D20120A3
:1024F00000E00020AC223100C0B200F0D0FDAD22DF
:1025000031000B48007800F0CAFD0B4A2B00210077
:102510000020FFF756FF002070BD80B5002000F0BE
:10252000A4FE01200249087001BD000080E00810EF
:10253000A04702285CEF00E09028022852EC113BF3
:1025400051EC10CBB0EEC00BB0EEC11BC80F490070
:10255000520028BF0C3011F5001F34BF12F5001FC8
:1025600010E0634572EB010C38BF80F004001343A8
:102570001AD003D281EE000B00F092BF80EE010B67
:1025800000F08EBF11F5001F08BF80F0040094BF5B
:1025900012F5001F0CE08A424FF0000312BF002228
:1025A0004FF07C5242F4700242EC103B00F078BFD6
:1025B0006FF0004120EE101B70470268531C03604F
:1025C00011707047B5EEC00BF1EE10FA02D4B1EE07
:1025D000C00B70476FF0004C20EE10CBAFF30080C3
:1025E000704731000020002001E000BF401C0100C6
:1025F000C9B21E29F9DB704780B5032201213B20B7
:1026000000F06CF901213B2000F035F9012139205F
:1026100000F031F9FFF7E6FFFFF7E4FFFFF7E2FF15
:10262000FFF7E0FFFFF7DEFF00213B2000F023F97A
:10263000FFF7D8FFFFF7D6FFFFF7D4FF00213920BF
:1026400000F019F901BD80B5032201213B2000F003
:1026500045F90021392000F00EF900213B2000F05F
:102660000AF9FFF7BFFFFFF7BDFFFFF7BBFF01212F
:10267000392000F000F9FFF7B5FFFFF7B3FFFFF7D0
:10268000B1FF01213B2000F0F6F8FFF7ABFF01BDE1
:1026900080B5032200213B2000F020F901213B20DE
:1026A00000F0E9F8FFF79EFF0121392000F0E3F880
:1026B000FFF798FF3B2000F000F9002803D0FFF758
:1026C000C2FF012004E00021392000F0D4F80020EE
:1026D00002BD38B50400032201213B2000F0FEF8C2
:1026E0000021392000F0C7F800251EE000213B2022
:1026F00000F0C1F805E02006F8D501213B2000F0EC
:10270000BAF8FFF76FFF0121392000F0B4F8FFF7A6
:1027100069FF6400FFF766FFFFF764FF00213920BF
:1027200000F0A9F8FFF75EFF6D1C2800C0B2082872
:10273000E1DBFFF757FF31BD70B50400002603222F
:1027400000213B2000F0CAF8002517E000213920C5
:1027500000F091F8FFF746FFFFF744FFFFF742FF55
:102760000121392000F087F876003B2000F0A5F821
:10277000002800D0761CFFF735FF6D1C2800C0B282
:102780000828E3DBE4B2002C02D000F006F801E0F8
:1027900000F026F83000C0B270BD80B500211920CD
:1027A00000F069F8032201211A2000F097F80021B7
:1027B0001A2000F060F800F037F800F035F800F06B
:1027C00033F80121192000F056F800F02DF800F040
:1027D0002BF800F029F80021192000F04CF801BD79
:1027E00080B50021192000F046F8032201211A20AB
:1027F00000F074F801211A2000F03DF800F014F800
:1028000000F012F800F010F80121192000F033F860
:1028100000F00AF800F008F800F006F8002119208E
:1028200000F029F801BD00000020002001E000BFF9
:10283000401C0100C9B21E29F9DB70470069C8407D
:1028400010F001007047012212FA01F18160704717
:10285000012212FA01F14160704710B48900436C03
:102860000F248C40A34312F00F0212FA01F1194316
:10287000416410BC704780B5C9B200290ED0010078
:10288000C9B2082291FBF2F302FB1311494AC0B20C
:10289000C010C0011044FFF7D6FF0DE00100C9B21F
:1028A000082291FBF2F302FB1311424AC0B2C0109E
:1028B000C0011044FFF7CCFF01BD80B50100C9B2D3
:1028C000082291FBF2F302FB13113A4AC0B2C01086
:1028D000C0011044FFF7B2FFC0B202BD10B5C9B2CB
:1028E00000290BD1D2B2002A02D0022A02D003E082
:1028F0000F220BE00B2209E00A2207E0D2B2042AE1
:1029000001D10C2200E00E2212F007020100C9B230
:10291000082391FBF3F403FB1411264BC0B2C01043
:10292000C0011844FFF799FF10BD2DE9F8418DB0A3
:1029300004000E0015001F0034210022E846404626
:1029400000F03AF8F6B2002E0ED1FFB2002F02D0FE
:10295000022F03D005E00F2001900DE00820019028
:102960000AE00820019007E0FFB2042F02D10F20F7
:10297000019001E00E2001902000C0B2C0280FD0CD
:102980002100C9B208206A4691FBF0F300FB131145
:1029900008482300DBB2DB10DB01184400F097FE8F
:1029A0002900C9B22000C0B2FFF765FF0EB0BDE834
:1029B000F08100000000314062F30F2262F31F42F9
:1029C000401810F0030308D0C91A1FD3DB0748BF13
:1029D00000F8012D28BF20F8022D130030B4144652
:1029E0001546103928BF20E93C00FAD8490728BF0E
:1029F00020E90C0048BF40F8042D890028BF20F8CA
:102A0000022D48BF00F8012D30BC7047C91818BF0F
:102A100000F8012DCB0728BF00F8012D70473200C8
:102A200062B38B0708D0521E11F8013B00F8013B3E
:102A300000F024808B07F6D1830740F0208000BF90
:102A4000103A07D330B4B1E83810103AA0E8381083
:102A5000F9D230BC530724BFB1E80810A0E8081031
:102A600044BF51F8043B40F8043BD20724BF31F87F
:102A7000022B20F8022B44BF0B7803707047121F03
:102A800017D35B0009D151F8043B20F8023B1B0C23
:102A9000121F20F8023BF6D20BE051F8043B00F87D
:102AA000013B1B0A20F8023B1B0C121F00F8013BE4
:102AB000F3D238BF121D521E24BF11F8013B00F89B
:102AC000013BF8D87047330040F21E4CBCEB11526A
:102AD00009DDC90282F3070241F0004141EA50508A
:102AE0000021D040704720320DDBC902D2F1200313
:102AF00041F0004141EA5051C002D04001FA03FCCC
:102B0000D140604470476FEAE17108467047340075
:102B1000BBBBE1B1B2F5803F80F07E80022A1ED9B6
:102B20008C46B1FBF2F102FB11C31B0443EA1043D4
:102B3000B3FBF2FC02FB1C3380B240EA0343B3FB5D
:102B4000F2F002FB103240EA0C4000237047022AE8
:102B500005D98446B0FBF2F002FB10C270474AB1BF
:102B600005D100F0010249085FEA300070470022F9
:102B70000023704700F0EABD0B0002000021002096
:102B80007047904271EB030CF6D3B3F5803F2FD220
:102B9000F0B5B3FA83F7B1FA81F4A7F10F0E3D1B3C
:102BA0005340CEF1200602FA0EF2F3415340B5F144
:102BB0000F0746D80F3C2C444140C4F12006A040EA
:102BC000F1414140B1FBF3F603FB1611A2FB0645B0
:102BD000001BA94102D2761E8018594180EA0102E9
:102BE00021FA0EF362FA0EF200215A403046F0BD8F
:102BF00030B4B1FBF3FC03FB1C11A2FB0C45001B22
:102C0000A94103D2ACF1010C8018594130BC0246F5
:102C10000B46604600217047B2F1807F65D3F0B566
:102C2000B2FA82F7B1FA81F4C7F10F063D1B22FA1E
:102C300006F307F1110EF24120355A40B5F10F07A6
:102C4000B8D94140C4F12006A040F1414140B1FB58
:102C5000F3FC03FB1C11A2FB0C45001BA94103D292
:102C6000BCF1010C801859410F2F12D30F3FC9033B
:102C700041EA5041B1FBF3F603FB1611A2FB0645F6
:102C8000D4EBC030A94102D2761E8018594146EAE1
:102C9000CC3C07B34140C7F12006B840F141414068
:102CA000B1FBF3F603FB1611A2FB0645001BA9417D
:102CB00002D2761E8018594180EA010221FA0EF3F1
:102CC000C7F1200462FA0EF20CFA07F05A402CFA0F
:102CD00004F13043F0BD80EA010221FA0EF3002135
:102CE00062FA0EF260465A40F0BD8C46B1FBF2F13A
:102CF00002FB11C31B0243EA1063B3FBF2FC02FBAD
:102D00001C331B024CEA002043EA1063B3FBF2FCC5
:102D100002FB1C331B024CEA002043EA1063B3FBA6
:102D2000F2FC02FB1C331B024CEA002043EA106356
:102D3000B3FBF2FC02FB1C324CEA0020002370477C
:102D40000CB430B583B00A4606A9029104460025AA
:102D50000194009502AB01A9084878441E3000F0A8
:102D6000FAFC019A157000284EBF04460198041B16
:102D7000204603B030BC5DF80CFB00BF3FF8FFFFFE
:102D800082B000200190002000900020019009E016
:102D90000098401C00900098B0F5005FF8D30198AF
:102DA000401C01900198B0F5805F02D20020009095
:102DB000F1E702B0704780B50100002001F023FE6A
:102DC00001BD2DE9F043ADF5137D070088461600DF
:102DD0001C000020ADF802000020ADF8000000202B
:102DE00002900020ADF804000020ADF80600404637
:102DF00002F0FAF80290DFF890532888002801D0FA
:102E000028698047DFF884030078002800F03381C8
:102E10002888002800F01181BDF90600411CADF89A
:102E200006103A00010089B20020EB689847474637
:102E3000404602F0D9F802906888A97990FBF1F039
:102E4000ADF804003800471C00780028FAD10020B3
:102E5000ADF800000EE07F1E38782F2802D03878B9
:102E60005C2804D1BDF80000401CADF800000298B9
:102E7000401E0290BDF80000022802DA02980028E5
:102E8000E9D50298002806D47A1CDFF8041353A869
:102E9000FFF756FF0EE0BDF80000002805D13A000C
:102EA000BC4953A8FFF74CFF04E03A00B84953A8C7
:102EB000FFF746FF0020ADF8020042E0BDF8001029
:102EC000BDF80020BDF8023053AF9BB2BDF904003D
:102ED000434313FA82F0385C43AA89B25054BDF8D8
:102EE0000000401CADF80000BDF8000080B2BDF944
:102EF000041088420EDA53A802F076F8BDF80020DC
:102F0000BDF802309BB2BDF904104B4313FA82F1B5
:102F10008842D3D2002043A9BDF800208854BDF9CF
:102F20000600411CADF8061043AAE97911FB00F137
:102F300089B20020EB689847BDF80200401CADF84C
:102F40000200BDF8027053A802F04EF8BDF904105B
:102F5000B0FBF1F0401CBFB2874203D20020ADF8B5
:102F60000000C1E732008C4953A8FFF7E9FEBDF924
:102F70000600411CADF8061053AAE97911FB00F1D7
:102F800089B20020EB689847002C74D00020ADF87F
:102F9000020041E0BDF80010BDF80020BDF802308D
:102FA0009BB2BDF90400434313FA82F0205C43AAAC
:102FB00089B25054BDF80000401CADF80000BDF8C7
:102FC000000080B2BDF9041088420EDA200002F041
:102FD0000BF8BDF80020BDF802309BB2BDF904101B
:102FE0004B4313FA82F18842D4D2002043A9BDF8A2
:102FF00000208854BDF90600411CADF8061043AA14
:10300000E97911FB00F189B20020EB689847BDF81F
:103010000200401CADF80200BDF80260200001F083
:10302000E3FFBDF90410B0FBF1F0401CB6B28642DC
:1030300021D20020ADF80000C1E74FF480710022DA
:103040000DF10C094846FFF7B7FC3800A96888471E
:10305000002C07D0009433004246504903A8FFF7E4
:103060006FFE05E0330042464D4903A8FFF768FEB6
:1030700003A8A96888470DF5137DBDE8F08310B556
:1030800042480078002809D0474C2100002001F078
:10309000C8FC01222100434802F027F810BD38B5D2
:1030A0000C001500C0B2002803D140480078002869
:1030B00000D131BD3E490878002800D0FEE70878ED
:1030C000401C087002F01AFA00232A002100394837
:1030D000FFF777FEFFF754FEF6E710B514001A006D
:1030E000C0B2002808D129480078002804D00B007D
:1030F00021003148FFF765FE10BD002101804FF629
:10310000FF7141808180FF218171C1710021816047
:103110000021C1600021016170471B4902880A80BB
:1031200042884A8082888A8082798A71C279CA718B
:1031300082688A60C268CA60006908610120134918
:103140000870704700B585B06846FFF7D6FF1B488A
:1031500002906846FFF7E1FF05B000BD80B5FFF7BC
:10316000F1FF002300225FF4E131002001F04EFE68
:103170004023134A00210B4802F057F90121002097
:1031800001F0F6FC01BD00008046022894470228A9
:1031900074E4081024E4081080E4081034E30810F4
:1031A000D4E308103C46022895470228D20B022897
:1031B0009647022834E408108CE40810B72D081054
:1031C000A8440228010009B2002909D4012210F004
:1031D0001F018A40DFF8941200B2400941F8202014
:1031E0007047020012B2002A05D44901DFF880229C
:1031F00000B2115408E04901DFF8782200B210F063
:103200000F00104400F8041C7047DFF86C020168DE
:1032100051F0010101600168C907FCD4704797486B
:10322000016851F00101016070479548016851F053
:103230000101016070471FB5684602F061FA00287D
:103240000DD0904C18229049200002F0F5FA002091
:10325000E07549208D490860002002F025FB01201F
:103260008B490870FFF7D1FF1FBD80B5C0B20128A0
:103270000ED10321874802F06DFA03210320FFF7E6
:10328000B0FF0320FFF79EFF01208349087002E092
:10329000002081490870FFF7C2FFFFF7C6FF012039
:1032A0007B49087001BD7CB504000D007B48D0E966
:1032B0000023CDE900232800C0B2002814D17648AD
:1032C000007801280DD06F4E18226F49300002F0AF
:1032D000B3FA0020F07594206C490860002002F0D9
:1032E000E3FA00206A49087001208DF804000020EC
:1032F0008DF8050000942A00D2B26946002002F041
:10330000E0FC00280DD05F4C18225F49200002F03D
:1033100093FA0020E0759E205C490860002002F0CE
:10332000C3FA73BD7CB505000C00280002F0CEFB8B
:1033300000280DD0534E18225349300002F07CFA79
:103340000020F075B52051490860002002F0ACFA69
:103350002000C0B2002814D14F48007801280DD0B9
:10336000484E18224849300002F066FA0020F075F5
:10337000B92046490860002002F096FA002044492E
:1033800008700095280002F0D6FB002801D020200C
:1033900001E04FF4007001902200D2B26946002093
:1033A00002F0C3FC002801D1012000E0002076BD1E
:1033B000F8B584B004000D001600200002F086FB72
:1033C00000280DD02F4F18222F49380002F034FA70
:1033D0000020F875DF202D490860002002F064FA13
:1033E0006846102102F032FD3000C0B2002814D12E
:1033F0002948007801280DD0224F18222249380090
:1034000002F01AFA0020F875E62020490860002032
:1034100002F04AFA00201E49087001208DF80800C9
:1034200001208DF8090002208DF80A0001208DF896
:103430000B0000208DF80C00009401953200D2B2F0
:103440006946002002F0F9FA00280DD00D4C182230
:103450000D49200002F0F0F90020E075F5200B493D
:103460000860002002F020FA05B0F0BD00E100E0A5
:1034700000E400E018ED00E00800244000F42440DF
:1034800000F524402446022894DF0810144702283F
:1034900088470228373208108947022828E5081093
:1034A00021A1B1EC061BB4EE410BF1EE10FA09DBE1
:1034B000B1EE424B33EE001B00EE034B84EE010BEA
:1034C00040F0020030EE10CBB1EC063B2CF0004C8B
:1034D000BCF1795F15D320EE001B03EE014B20EE0B
:1034E000013B04EE015B05EE030BB1EC083B03EE80
:1034F000014B04EE015B05EE016B06EE012B80EE45
:10350000020B38BF2031400810F0020F18BFB1EE97
:10351000400B01EBC00191ED001B30EE010B28BF09
:10352000B1EE400B7047000057CD9E5E1426D13F90
:10353000000000000000F03FAA4C58E87AB6FB3FBC
:10354000845D57134B57B03FB2934C19ED5EE43F87
:10355000BEDE02B90240F83FDE39028FC7C0743FB9
:103560008AAB1283000CC83F24D7E508B6D8F03FD9
:103570000F34580E5895FD3F000000000000000079
:1035800066732D3852C1E03F182D4454FB21F93F9A
:1035900066732D3852C1F03F182D4454FB21F93F7A
:1035A00066732D3852C10040182D4454FB21094048
:1035B0003FD038C6A6F1044030B4614B1818C0099A
:1035C000604C14EB001404290DD223681F25C80099
:1035D0008540AB43D2B212F01F02C90012FA01F1CA
:1035E000194321600CE0091F63681F25C80085404E
:1035F000AB43D2B212F01F02C9008A401A43626084
:1036000030BC7047002A04D1012212FA01F1416056
:1036100003E0012212FA01F18160704710B48900C1
:10362000436C0F248C40A34312F00F0212FA01F1F5
:103630001943416410BC704710B4836C01248C4062
:10364000A34312F0010212FA01F11943816410BC84
:10365000704710B4C36C01248C40A34312F00102E4
:1036600012FA01F11943C16410BC704710B449004B
:103670001031C36C03248C40A34312F0030212FAEE
:1036800001F11943C16410BC70474269012212FA6A
:1036900001F141614069704710B4836901248C4095
:1036A000A34312F0010212FA01F11943816110BC27
:1036B000704710B44900036C03248C40A34312F0FC
:1036C000030212FA01F11943016410BC7047F8B506
:1036D00005000E0014000027002D2ED0002C2CD049
:1036E000226831002800FFF78DFF227A3100280080
:1036F000FFF762FF626931002800FFF79DFFA269B2
:1037000031002800FFF7A5FFE26931002800FFF72C
:10371000ADFF626831002800FFF780FFE2683100EA
:103720002800FFF7C6FF31002800FFF7AEFF22692F
:1037300031002800FFF7B0FF00E0034F3800F2BD72
:103740000000CFBF0000304001005A007047350034
:1037500040F0200070472DE9F14FB0B0924604913F
:103760000DF142013A9A2B9199464A7000200AE0E5
:103770001AF8011B0498309A90470028049000F032
:1037800034860D98401C0D909AF8000050B1252801
:10379000EED1002100220791089209910A920B9123
:1037A0000C9204E00D9800F022BE41F001011AF8DD
:1037B000010F2028F9D023280CD02B2804D02D2845
:1037C00005D0302809D00BE041F00201EFE741F0CD
:1037D0000401ECE741F00801E9E741F01001E6E7F8
:1037E0002A280FD1D9F8002052F8040BC9F800207C
:1037F00000280F9003D540420F9041F004010AF1D8
:10380000010A14E00F92DFF8EC3B0AE00F989842AF
:1038100005DA00EB800402EB4402303A0F920AF121
:10382000010A9AF80020A2F130000A28EED39AF893
:1038300000002E2803D04FF0FF320E9229E01AF834
:10384000010F2A2809D1D9F8000050F8042BC9F833
:1038500000000E920AF1010A1BE02D280CBF0AF1AC
:10386000010A002000220E92DFF8884B0BE040B9DD
:103870000E9AA24205DA02EB820503EB4503303BC8
:103880000E930AF1010A9AF80030A3F130020A2AD5
:10389000EDD3ADF840100FF660309AF8001002F04A
:1038A000D9FA08B11AF8010B8DF842009DF84200D0
:1038B000682805D19AF8000068280CD1622106E03A
:1038C0006C2804BF9AF800006C2804D171218DF88F
:1038D00042100AF1010A12A806901AF801BBBBF1C6
:1038E00025012CD01C3900F09481091F022940F2D7
:1038F0009081133900F0AB84093900F08A81891E68
:1039000000F04085491E00F0ED84491E022940F276
:103910008081091F00F0E684491F00F0EF80491EF6
:1039200000F09584491E00F0D780C91E0CD0891E76
:1039300000F08D84C91E00F08A8400F02EBD0123A2
:103940000793252100F026BDD9F8000050F8044B5C
:10395000C9F80000002C059440F0AB802B99487802
:10396000002800F0A1804FF0FF340FF6942002F001
:103970007DFA241A40F0398500F01BBD01236A4608
:1039800002A9304600F000FE002840F02E85641E9B
:10399000F4D13096079C12AF74B1309E17F8011B1A
:1039A0000498B0470028049000F01F850D98401C33
:1039B000641E0D90F2D130960A9C3021002C8DF8B7
:1039C00000100CDD309E01236A4602A9304600F04B
:1039D000DBFD002840F00985641EF4D13096059F78
:1039E000089C74B1309E17F8011B0498B04700285A
:1039F000049000F0FA840D98401C641E0D90F2D1E2
:103A000030960B9C3021002C8DF800100CDD309E80
:103A100001236A4602A9304600F0B6FD002840F0B6
:103A2000E484641EF4D1309605980899099C4718DF
:103A300074B1309E17F8011B0498B0470028049019
:103A400000F0D3840D98401C641E0D90F2D1309686
:103A50000C9C3021002C8DF800100CDD309E0123D1
:103A60006A4602A9304600F08FFD002840F0BD8470
:103A7000641EF4D130969DF8400041077FF584AE76
:103A80002020002D8DF800007FF77EAE309C0123B2
:103A90006A4602A9204600F077FD002840F0A58480
:103AA0006D1EF4D130946FE60FF63C30059000F0B7
:103AB00080BC0E9D002D04D5204601F095FA0446E9
:103AC00007E02A46204602F0F1F9002814BF041B43
:103AD0002C46089400F06DBCD9F8001051F8040B86
:103AE000C9F8001020F00004002121F0FF35CDE9D5
:103AF000024512AB0593782100F040BC2B99487821
:103B000020B14FF0FF340FF6B02030E79DF84200AF
:103B1000622860D0682817D06A283FD06C2806D069
:103B2000712847D074282CD07A281DD062E0D9F8AB
:103B3000001051F8040BC9F80010002866D14FF0AE
:103B4000FF340FF68C2012E7D9F8001051F8040B5F
:103B5000C9F8001020B94FF0FF340FF6742006E7C3
:103B60000D99018000F025BCD9F8001051F8040B24
:103B7000C9F80010002849D14FF0FF340FF650204B
:103B8000F5E6D9F8001051F8040BC9F80010002828
:103B90003CD14FF0FF340FF63820E8E6D9F800109A
:103BA00051F8040BC9F8001080B94FF0FF340FF63C
:103BB0002020DCE6D9F8001051F8040BC9F80010F9
:103BC00020B94FF0FF340FF60820D0E60D9AD31736
:103BD000C0E90023EDE3D9F8001051F8040BC9F84F
:103BE000001020B94FF0FF340FF6E410BFE60D9936
:103BF0000170DEE3D9F8001051F8040BC9F8001089
:103C000020B94FF0FF340FF6C810B0E60D990160EF
:103C1000CFE39DF842004C2807BFD9F80010CA1D19
:103C2000D9F80000C21D22F00702C9F80020D2E92D
:103C300000010832C9F80020CDE90201C80F02D006
:103C400007982D210AE0BDF84000810702D50798AA
:103C50002B2103E0C00705D50798202112AA115493
:103C6000401C079012A807994BF0200300EB010CB1
:103C7000DDE90201CDE92C01612BCDF814C021ACA6
:103C80000BD00E98002848BF062105D404BF4BF086
:103C90002000672801D101210E91DDE902014F00CA
:103CA00047EAD0777E15FF174FF0FF32974208BFE3
:103CB000964210D1090341EA10510003002908BFC0
:103CC000002808D0ABF1610503211A2D089118D303
:103CD0000FF61C1110E0DDE902014A00521512F145
:103CE000010F11D108030FD1ABF1610503211A2D8A
:103CF00008911FD30FF6001103226046FEF790FED5
:103D000057E30FF6E801F7E7DDE902016A4602F042
:103D1000F9F8CDE902014BF02000612811D1059896
:103D200030210170821C0592BBF1610F0CBF78211C
:103D3000582102E00FF6BC01DEE741700798801CB5
:103D40000790DDE9020120F0000231F0004308BFD6
:103D5000002A02D10026002542E14BF02008B8F1EC
:103D6000610F40F092800E98002847BF21210191F9
:103D7000401C0190019FDDE92C017F1C00220023E3
:103D8000DDE9024502F0F6F838BF85F000450099FC
:103D90008DF88420091F002F00910DF1850632DD7A
:103DA000204629460022002302F0FEF82BD21C22D6
:103DB00002F014F904460D4602F092F9FF1F002F9D
:103DC000804609DD02F093F902460B46204629465B
:103DD00002F094F904460D46F01D0721B8F1000FDA
:103DE0000CDD491E5EBF08F00F0200F8012D4FEAFE
:103DF0002818F3D502E0002200F8012D491EFAD55B
:103E0000C61D002FCCDC0DF18500361A01980DF18E
:103E100085048642D8BF304600282FD4B04206DA47
:103E20000DF185010A5C082AA8BF0F2100DA0021E4
:103E3000024621AB134400E0401E13F80159521E04
:103E40008D42F9D00F2904D10DF185018B5C5B1CEB
:103E50008B54002A04D50099091D21AC401C009107
:103E6000411E0BD4621813783033DDB23A2DA4BF53
:103E70005B443A3B491E02F80139F4D50E990029FA
:103E800040F1AC80421E0E92A8E00099DFF8E826CF
:103E900047F29750414391FBF2F20092DDE92C4545
:103EA000C2F10702002A25F0004504DD204629461C
:103EB00000F03EFB0BE052420020DFF8C01600F09D
:103EC00037FB02460B462046294602F020F90446FD
:103ED0000D46B8F1660F06BF009F0A3706270E98F9
:103EE0003F18142FC8BF142730208DF884000DF11F
:103EF0008506002F34DD2046294602F011F90146DF
:103F00000A4606F1080304200A26B2FBF6F606EB81
:103F1000860EA2EB4E02303203F8012C0A22B6FBC9
:103F2000F2F202EB820EA6EB4E063036401E03F88C
:103F3000026DE9D1083F002F03F10806D9DD0846DC
:103F400002F0F5F802460B462046294602F0D6F864
:103F50000022DFF82C3602F0F1F804460D46CAE7DD
:103F60000DF18500361A0DF1850404E00098401E1D
:103F7000761E0090641C20783028F7D0B8F1660FC8
:103F800002D10098401C04E0B8F1650F0CBF01207D
:103F900000200E9940188642B8BF701E00281DD41C
:103FA000B04204DA215C3429C8BF392100DC302159
:103FB0000246631E9D1800E0401E15F80169521E5E
:103FC0008E42F9D0392902D1A15C491CA154002AA2
:103FD00004D50099491C1C46401C00910646009DD2
:103FE0000E9F30B2002802DC01260FF210644BF065
:103FF0002000662808BF6D1C15D067280FFA85F8C9
:1040000041D118F1040F44DBB84542DA9DF8400075
:104010006D1C010703D430B2B842D8BF074628B29E
:104020003F1A48BF00270FFA85F8B8F1000F00F3D8
:10403000AF800898411C0891302205990A54002F3E
:1040400003DC9DF84000010705D50898411C089144
:104050002E2205990A5417EB080FB8BF7D422DB2E6
:104060006842ED1932B20B909542B8BF2E46059BBF
:10407000089836B20996324621461844FEF7D0FC1D
:10408000AD1B0C95CCE0BBF1610F15D14FF0700B5F
:1040900017E030B2B84204DA9DF840100A0758BF62
:1040A00007467F1E48BF0027BBF1670F14BF4FF0C4
:1040B000450B4FF0650B04E0BBF1410F08BF4FF01B
:1040C000500B0898411C0891002F059914F8012BFA
:1040D0000A5403DC9DF84000010719D50898411CDB
:1040E00008912E2205990A54002F11DD761E30B258
:1040F0008742B8BF3E460598089B32B22146184415
:10410000FEF78EFC089836B23018BF1B08900B974C
:10411000059808990844B8F1000F80F800B003D45E
:104120002B224270821C04E02D2145464170821CE6
:104130006D4200212CAB28460AE004460A2094FB7D
:10414000F0F000EB8005A4EB450403F8014B491C9B
:1041500000B20028F1DC012906DC4BF020006528C4
:1041600004BF302002F8010B00292CAB08D130200D
:1041700002F8010B06E0491E585C303002F8010BD2
:104180000029F8DC059908980844121A099247E0BA
:1041900030B229B288421BDA0598089B32B2214618
:1041A0001844FEF73DFC089936B271180891A8EB47
:1041B0000600002F0B9003DC9DF84000020705D598
:1041C000059A2E2050540999491C09910C9727E013
:1041D0000598089B2AB221461844FEF721FC08984E
:1041E000761B4044002F089003DC9DF840100A071E
:1041F00004D5411C08912E2205990A5430B28742F9
:10420000B8BF3E460598089B32B204EB080118443B
:10421000FEF706FC089836B23018BE1B08900B96C5
:104220009DF8400000F01400102840F0C280079A6A
:1042300008980B99821809988A1882180C980F9977
:104240008018884280F2B580081A0A90B1E09DF883
:104250004200622808D068280ED06A2814D06C2842
:104260001FD0712810D01CE0D9F8001051F8040BB1
:10427000C9F80010C0B21AE0D9F8001051F8040BC8
:10428000C9F8001080B212E0D9F80000C21D22F077
:104290000702C9F80020D2E900010832C9F800205D
:1042A00006E0D9F8001051F8040BC9F800100021FD
:1042B000CDE902019DF8400001075AD5DDE902234E
:1042C000002B08BF002A54D04BF02000782850D192
:1042D000079812A930220A54401C431C079301F886
:1042E00000B046E09DF84200622808D068280ED051
:1042F0006A2814D06C281FD0712810D01CE0D9F87F
:10430000001051F8040BC9F8001040B21AE0D9F8B7
:10431000001051F8040BC9F8001000B212E0D9F8EF
:104320000000C21D22F00702C9F80020D2E90001F6
:104330000832C9F8002006E0D9F8001051F8040B43
:10434000C9F80010C117CDE90201002902D507986C
:104350002D210AE0BDF84000810702D507982B21E6
:1043600003E0C00705D50798202112AA1154401C6C
:10437000079012A8079901440591594602A800F038
:104380004DF816E001200790D9F8000050F8041B02
:10439000C9F800008DF848100BE001212522BBF17F
:1043A000000F07918DF8482003D0022207928DF864
:1043B00049B00F9D07990A986D1A08992D1A0B9804
:1043C0006D1A09992D1A0C986D1A9DF840102D1A26
:1043D00048073FF5DFAA2021002D8DF800107FF758
:1043E000D9AA309E2C46FFF7C9BA4FF0FF3031B042
:1043F000BDE8F08FCBCCCC0C686A6C747A4C0000B2
:104400007072696E74665F733A206261642025730E
:1044100020617267756D656E740000002DE9FC47C0
:1044200007468A463C6950466F2808BF082505D0D4
:10443000FFF78EF9782814BF0A251025D7E9000167
:104440003C2680468946BAF1640F18BFBAF1690F5D
:1044500005D1002903D5D8F1000869EB4909B9F164
:10446000000F08BFB8F1000F0CD1386B50B9082D00
:104470003AD197F83800010736D530223B2684F828
:104480003B2031E08DF800A0404649462A46EB1714
:10449000FEF73EFB3032D0B2761E3A2801960EDA95
:1044A000A255404649462A46EB17FEF731FB8046A7
:1044B0005FEA010908BFB8F1000F05D108E09DF8D7
:1044C00000001218513AEBE7F868A1198842DBD3D3
:1044D000082D09D197F83800010705D5A05D3028CF
:1044E00002D0761E3020A055C6F13C03BB61A11955
:1044F000F960386B834208DAC31A3B624FF6EF70FB
:10450000398F01403987BDE8F38700280ED597F829
:10451000380000F01400102808D17A6B7969386AE5
:10452000521A121AD21A002AC8BF3A62BDE8F3879B
:104530002DE9D04306460F4614464FF00008DFF839
:10454000449012E0E00707D542464B4630463946D4
:1045500001F0F4FD06460F464046494642464B46AA
:1045600001F0ECFD641080468946002CEAD130460B
:104570003946BDE8D0830000A08601000000F03F6E
:1045800084D7974100002440F8B505460E461746EB
:104590001C4600205CB117F8011BB068A847B0604A
:1045A00030B1F06A401CF0620020641EF3D1F2BD0D
:1045B0004FF0FF30F2BD00007072696E74665F7379
:1045C0003A20256E20646973616C6C6F77656400B6
:1045D0007072696E74663A2062616420256E206193
:1045E0007267756D656E7400000000006E616E008C
:1045F0004E414E00696E6600494E4600300036005E
:10460000010009B2002909D4012210F01F018A40DB
:10461000DFF88C1900B2400941F8202070470228C9
:1046200001D3012010E00B00DBB2042B01DB0120E1
:104630000AE0DFF8703903EB8000C9B2405C8242C7
:1046400001D3012000E000207047F8B504000F00FE
:1046500015001E00022C01D301202AE02A00390097
:10466000C9B22000FFF7DBFF012801D1012020E0C3
:1046700006983900C9B202291ED1B6F5803F19D279
:10468000202817D24FF4C052DFF81C1963030B44E3
:1046900003EB850313441F6866F317271F60640349
:1046A000214401EB850111440A6860F3C7020A60E6
:1046B0000020F2BD0120FCE7FFB2032F1FD1B6F1AD
:1046C000807F1AD2202818D24FF4E052DFF8D81891
:1046D00063030B4403EB850313441F6807F0FF07D4
:1046E00057EA06271F606403214401EB850111444A
:1046F0000A6860F3C7020A60DAE70120D9E70120FF
:10470000D7E700B20012C0B27047F8B505000E003E
:104710001700280000B2FFF7F4FF04002000C0B229
:10472000022801D3012024E03A003100C9B2200060
:10473000C0B2FFF774FF012801D1012019E0DFF8B2
:1047400068182000C0B2400308442A00D2B200EB2F
:104750008200D0F8000CF6B266F3092067F3070078
:10476000E4B264032144EDB201EB8501C1F8000C11
:104770000020F2BD70B504000D001600022C01D31C
:1047800001201DE032002900C9B22000FFF747FFD9
:10479000012801D1012013E0DFF80C18600308584C
:1047A00050F0004050F0407050F47F00EDB265F3DF
:1047B000092066F30700620388506403085900204B
:1047C00070BDD0F840037047D0F80803C005C00D95
:1047D0007047C0F840127047D0F80802C005C00DFD
:1047E0007047D0F80802C0F3C030704738B50500F4
:1047F0002800FFF7F1FF04002800FFF7F2FF04197B
:10480000002C01D1012000E00020C0B232BDC0F870
:10481000C81F7047D0F8C80F7047C0F8881F70478E
:10482000D0F8880F7047016851F00041016070476F
:1048300038B504001500C9B2002906D002291ED0DF
:1048400010D3042935D027D340E0DFF86007A060FB
:1048500001202073112060734FF48C70E0811220CE
:10486000208239E0DFF84807A06001202073112082
:10487000607340F21D10E0816B2020822CE0DFF895
:104880003407A06001202073112060734FF48E70F4
:10489000E0816A2020821FE0DFF81C07A060022070
:1048A00020731120607340F21B10E0816920208288
:1048B00012E0DFF80807A060012020731320607366
:1048C0004FF48D70E0816820208205E07C22DFF8C3
:1048D000F0160020FEF7E3FBEDB2002D06D0022D0E
:1048E0001ED010D3042D35D027D340E0DFF8BC060E
:1048F000206000202071112060714FF48C70E081E5
:104900001220208239E0DFF8A80620600020207104
:104910001120607140F21D10E0816B2020822CE09C
:10492000DFF89006206000202071112060714FF4A4
:104930008E70E0816A2020821FE0DFF87C06206014
:10494000012020711120607140F21B10E08169206C
:10495000208212E0DFF8640620600020207113201E
:1049600060714FF48D70E0816820208205E0A822FC
:10497000DFF84C160020FEF792FB31BD10B5C0B237
:10498000002806D002280AD006D304280DD009D367
:104990000EE0DFF8304611E0DFF82C460EE0DFF8DD
:1049A0002C460BE0DFF8284608E0DFF8284605E053
:1049B000BD22DFF80C160020FEF771FB200010BDB1
:1049C00038B50400DFF81056C9B22000C0B255F85F
:1049D0002000FFF7FEFE2000C0B255F82000FFF7D0
:1049E00005FF0028F7D031BD70B505000E0014009A
:1049F00006E031782800C0B2FFF7E2FF641E761CA3
:104A0000002CF6D170BD38B504000D0005E0297802
:104A10002000C0B2FFF7D4FF6D1C28780028F6D123
:104A200031BD70B504000D000020DFF8AC6520003A
:104A3000C0B256F82000FFF7C7FE002807D0E4B246
:104A400056F82400FFF7BDFE2870012000E000208A
:104A5000C0B270BD70B505000C00DFF87C652800A1
:104A6000C0B256F82000FFF7DBFE4008400001000E
:104A70002800C0B256F82000FFF7CFFE2800C0B2D1
:104A800056F82000FFF7CCFE30F0020001002800AD
:104A9000C0B256F82000FFF7C0FE2800C0B256F89A
:104AA0002000FFF7BDFE30F0200001002800C0B25A
:104AB00056F82000FFF7B1FE2800C0B256F82000DB
:104AC000FFF7AEFE30F0400001002800C0B256F8FB
:104AD0002000FFF7A2FE2800C0B256F82000FFF722
:104AE0009FFE30F0100001002800C0B256F82000F0
:104AF000FFF793FE2800C0B256F82000FFF790FEA3
:104B000030F4807001002800C0B256F82000FFF792
:104B100084FE2800C0B256F82000FFF781FE30F472
:104B2000806001002800C0B256F82000FFF775FE33
:104B3000002C0ED02800C0B256F82000FFF76AFE05
:104B400050F400700100EDB256F82500FFF765FE45
:104B50000DE02800C0B256F82000FFF75BFE30F4ED
:104B600000700100EDB256F82500FFF756FE70BD4B
:104B700070B505000C00DFF860642800C0B256F87C
:104B80002000FFF747FE4008400001002800C0B2A7
:104B900056F82000FFF73BFE2800C0B256F8200070
:104BA000FFF738FE30F0080001002800C0B256F8C8
:104BB0002000FFF72CFE2800C0B256F82000FFF7B7
:104BC00029FE30F0200001002800C0B256F8200075
:104BD000FFF71DFE2800C0B256F82000FFF71AFEAE
:104BE00030F4807001002800C0B256F82000FFF7B2
:104BF0000EFE2800C0B256F82000FFF70BFE30F47E
:104C0000007001002800C0B256F82000FFF7FFFD39
:104C10002800C0B256F82000FFF7FCFD30F4006019
:104C200001002800C0B256F82000FFF7F0FD002C6C
:104C30000ED02800C0B256F82000FFF7EBFD50F070
:104C400004000100EDB256F82500FFF7E0FD0DE08D
:104C50002800C0B256F82000FFF7DCFD30F0040059
:104C60000100EDB256F82500FFF7D1FD70BD2DE92A
:104C7000F841A7B005000F00160028003100C0B2AF
:104C8000C9B2884201D1012000E000201C00DFF8F9
:104C9000308340F25D124146C0B2FEF700FA2800B0
:104CA0002100C0B2C9B2884201D1012000E0002039
:104CB0004FF4AF724146C0B2FEF7F1F902A81421D9
:104CC00001F0C4F8342100220DF168084046FDF7D8
:104CD00073FE4C2100220DF11C084046FDF76CFECE
:104CE000FF003A000023BD480021FDF711FF070037
:104CF0002200D2B23100C9B202A8FFF799FD082004
:104D00001B909DF80D008DF870001AAA9DF80C10EC
:104D10000298FEF7DCFC06201B909DF80D008DF834
:104D200070001AAA9DF814100498FEF7D0FC002019
:104D30000790082008900920099002200B9002207B
:104D40000C900020129000201490A34C2800C0B2B8
:104D500054F8200001F03EFBA1492A00D2B23820CD
:104D600042430A4407A92800C0B254F8200001F0C9
:104D7000EFF92800C0B254F82000FFF754FD2A00D4
:104D8000D2B20321BDF91600FFF7BFFCBDF9160032
:104D9000FFF7B7FC17F01F010091C7F357132A0064
:104DA000D2B20321C0B2FFF750FCBDF91600FFF7E5
:104DB000A8FC2A00D2B20321C0B2FFF7DBFCBDF988
:104DC0001800ADF800000320ADF8020001208DF8B6
:104DD0000400684601F046FB82482900C9B250F839
:104DE0002110BDF9000001F07CFBBDF90200FFF7C6
:104DF00007FC00212800C0B2FFF7BAFE00212800FE
:104E0000C0B2FFF727FE28B0BDE8F0812DE9F841D8
:104E1000A7B005000F00160028003100C0B2C9B2CB
:104E2000884201D1012000E000201C00DFF89081C1
:104E30004FF4CE724146C0B2FEF731F9280021008E
:104E4000C0B2C9B2884201D1012000E0002040F286
:104E50009D124146C0B2FEF722F902A8142100F0CB
:104E6000F5FF342100220DF168084046FDF7A4FD4E
:104E70004C2100220DF11C084046FDF79DFDFF006E
:104E80003A00002355480021FDF742FE07002200AA
:104E9000D2B23100C9B202A8FFF7CAFC08201B90A9
:104EA0009DF80D008DF870001AAA9DF80C1002985C
:104EB000FEF70DFC06201B909DF80D008DF870008C
:104EC0001AAA9DF814100498FEF701FC0020079020
:104ED000082008900820099002200B9000200C90D8
:104EE00000201290002014903B4C2800C0B254F8CF
:104EF000200001F06FFA3A492A00D2B2382042432A
:104F00000A4407A92800C0B254F8200001F020F993
:104F10002800C0B254F82000FFF785FC2A00D2B266
:104F20000321BDF91600FFF7F0FBBDF91600FFF7EE
:104F3000E8FB17F01F010091C7F357132A00D2B204
:104F40000321C0B2FFF781FBBDF91600FFF7D9FBC3
:104F50002A00D2B20321C0B2FFF70CFCBDF9180041
:104F6000ADF800000320ADF8020001208DF8040028
:104F700007221C482900C9B250F82110684600F0E9
:104F8000C9FA00212800C0B2FFF7F2FD0021280075
:104F9000C0B2FFF75FFD28B0BDE8F081000000005F
:104FA00000E100E038E50810000004400000314056
:104FB0000002314000053140800831400007314097
:104FC000A4E108100000604000006540000064405B
:104FD0000000634000006240B80B022800809698F1
:104FE000103B0228A40B022800F10103810704D022
:104FF00010F8011B820781B1FAD10268A2F10131D8
:10500000914311F0803104BF50F8042FF6E709BA3C
:10501000B1FA81F100EBD100401CC01A7047370093
:1050200082688918816003E082684169521A82604F
:10503000816842699142F7D27047C2688918C1609D
:1050400003E0C2684169521AC260C1684269914274
:10505000F7D2704770B50400002C01D0012000E0A9
:1050600000205422DFF8FC13C0B2FEF718F8002528
:10507000207850F0010020700020A0600020E06047
:10508000606920616078002803D0022810D007D31F
:1050900015E06169002266683000FDF78DFC0EE0C6
:1050A00061694900002266683000FDF785FC06E072
:1050B00061698900002266683000FDF77DFC0020F0
:1050C00020702800C0B270BD10B50400002C01D0C3
:1050D000012000E000207022DFF88813C0B2FDF745
:1050E000DEFF60692169401A10BD2DE9F843050013
:1050F0001600002D01D0012000E000200C00AA22A3
:10510000DFF86013C0B2FDF7CAFF00270020002CB3
:1051100001D10327B5E0287810F0050F01D004274E
:10512000AFE0287850F0040028702869B042C0F041
:10513000A380D5F81480A868B8EB0008B04567D202
:105140006878002803D0022841D01FD390E042465F
:1051500021006868AB6800EB03094846FDF760FC76
:1051600041462800FFF75CFFB6EB080204EB08019C
:105170006868AB6800EB03042000FDF751FCB6EB58
:10518000080841462800FFF74BFF71E05FEA48023C
:1051900021006868AB6800EB43094846FDF740FC16
:1051A00041462800FFF73CFFB6EB0802520004EB33
:1051B00048016868AB6800EB43042000FDF730FC51
:1051C000B6EB080841462800FFF72AFF50E05FEAE7
:1051D000880221006868AB6800EB83094846FDF748
:1051E0001FFC41462800FFF71BFFB6EB08029200A8
:1051F00004EB88016868AB6800EB83042000FDF7CE
:105200000FFCB6EB080841462800FFF709FF2FE026
:105210006878002803D002281DD00ED328E0320081
:1052200021006868AB6800EB03042000FDF7F8FB81
:1052300031002800FFF7F4FE1AE0720021006868D0
:10524000AB6800EB43042000FDF7EAFB31002800C7
:10525000FFF7E6FE0CE0B20021006868AB6800EBE7
:1052600083042000FDF7DCFB31002800FFF7D8FEA7
:105270002869861B2E6100E00527287810F0FB00C6
:1052800028703800C0B2BDE8F2832DE9F047050070
:105290000E001F00002D01D0012000E000201400AE
:1052A000DFF8C08140F25B124146C0B2FDF7F7FE65
:1052B000002C01D0012000E000204FF4AE724146E6
:1052C000C0B2FDF7ECFE5FF0000800200020002EC9
:1052D00002D15FF003088BE0297811F0030F03D0AF
:1052E00020605FF006089CE02800FFF7EDFE2168D3
:1052F000884209D220605FF00708002804D128788E
:1053000010F0F70028708CE0287850F00800287022
:10531000D5F81490E868B9EB00092068814522D3DC
:105320006878002803D0022813D008D35CE02268F4
:105330006868E96801443000FDF772FB54E02268B8
:1053400052006868E96800EB41013000FDF768FB36
:105350004AE0226892006868E96800EB8101300049
:10536000FDF75EFB40E06878002803D0022827D0D4
:1053700011D339E04A466868E9680144B2465046AC
:10538000FDF74EFB2268B2EB090269684E4430001B
:10539000FDF746FB28E05FEA49026868E96800EB30
:1053A0004101B2465046FDF73BFB2268B2EB0902D1
:1053B0005200696806EB49063000FDF731FB13E047
:1053C0005FEA89026868E96800EB8101B2465046ED
:1053D000FDF726FB2268B2EB09029200696806EB32
:1053E00089063000FDF71CFB287810F0F7002870C4
:1053F000FFB2002F15D128780B2802D15FF00208E8
:105400000FE0287850F00200287021682800FFF78C
:1054100014FE2969206841182961287810F0FD00E0
:1054200028704046C0B2BDE8F087F8B504000E0011
:1054300017001D00002C01D0012000E000204FF4D7
:1054400007720849C0B2FDF72AFE002067600021FC
:10545000217066700021A1600021E1602561656115
:10546000C0B2F2BDCCE00810010009B2002908D496
:10547000012210F01F018A401B4900B2400941F887
:1054800020207047010009B2002908D4012210F041
:105490001F018A40154900B2400941F82020704799
:1054A000020012B2002A04D44901114A00B2115478
:1054B00007E049010F4A00B210F00F00104400F855
:1054C000041C7047002800D162B60B480168491CD3
:1054D0000160704772B608490868002802D0086861
:1054E000401E08600868704700E100E080E200E0CC
:1054F00000E400E018ED00E06847022880B5FFF7FF
:10550000E9FF01F0DDFD01BD80B5C9B200B2FFF7D2
:10551000C7FF01BD70B504000D001600200000F0AB
:10552000A1FF2900B4F9000000F0DBFF3100C9B28F
:10553000B4F90200FFF7E8FFB4F90200FFF7A2FF99
:10554000B4F90200FFF790FF70BD380038B50400D1
:10555000082C10D3DFF8B0521822DFF8B012280060
:1055600000F06AF90020E875E820DFF8A41208606E
:10557000002000F099F9DFF89C026401204432BD5C
:10558000DFF894321B6862F31F4361F30F038360FB
:105590007047C0687047DFF884321B6862F31F43AE
:1055A00061F30F03036000687047C069C00FC0B2A9
:1055B0007047F8B502000D00002A01D1052053E024
:1055C000DFF85C120868C0F30320002801D1002036
:1055D00007E00868C0F303200E2801D1012000E095
:1055E0000220DFF84012400101EB00067FF070441A
:1055F000DFF83472380011001022FDF711FA386814
:105600004008400038601021380000F0A9F9DFF8A8
:105610001C323A000121300001F098FE002804D02D
:10562000012021E0641E002C15D03000FFF7BDFFE3
:105630000028F7D1002D08D01021380000F07EF9A5
:10564000280039001022FDF7EBF900F041F801289D
:1056500003D1032008E0022006E000F039F800281A
:1056600001D1002000E00420F2BD38B5010000297E
:1056700001D105202BE06A4A1068C0F303200028FE
:1056800001D1002007E01068C0F303200E2801D1EB
:10569000012000E00220634A400102EB0004624D59
:1056A00028001022FDF7BCF9286840084000286057
:1056B0001021280000F054F95C4B2A000121200041
:1056C00001F044FE002801D0012000E0002032BD9E
:1056D00010B5554C1021200000F030F9206810F072
:1056E0007040B0F1204F01D1002008E0206810F098
:1056F0007040B0F1704F01D1012000E0022010BDD8
:1057000038B50400FFF7E4FF05002800C0B2022806
:1057100002D17FF070400DE0002C04D020004249FF
:105720001022FDF77DF9EDB2002D01D1002001E03E
:105730003D48006832BD10F07041B1F1204F01D1F9
:10574000002006E010F07041B1F1704F01D07FF001
:10575000704070473EB5364AD2E90045CDE9004574
:10576000ADF8021033490860684600F07BFE0FF286
:105770004101BDF9000000F0B4FE0220FFF7E6FE93
:10578000274A1168C1F30321002901D1002107E054
:105790001168C1F303210E2901D1012100E002218A
:1057A0000022012313FA01F1FFF7EAFE37BD0000E2
:1057B00038B500200220FFF7C9FE04002000FFF7E3
:1057C000E8FE050016490868C0F30320002801D14F
:1057D000002007E00868C0F303200E2801D1012053
:1057E00000E002202900C140C80705D5114908681A
:1057F000002801D0086880472A00120CADB22900A9
:105800002000FFF7C8FE31BD24460228C8DE08107C
:105810001447022800102240ECE60810F0E60810B9
:105820000000204000002240A04602281047022825
:1058300030E508100C47022801B58B071AD1830701
:1058400024D1121F21D351F8043BA3F1013C2CEACF
:10585000030C1CF0803C04BF40F8043BF1E79CFAC9
:105860008CFCBCFA8CF1C1F118018B40CB4040F8A4
:10587000043B13E0042A09D311F8013B521E00F83F
:10588000013B5BB18B07F7D1D9E7121D5AB111F873
:10589000013B521E00F8013B03B1F8D111001CBFBF
:1058A0000022FDF78DF801BD01BEFEE780B5354A47
:1058B00035490B6893423ED00A60344A12684A6206
:1058C000334A8A6202684A6042688A608268CA60B3
:1058D000C2680A6102694A6142698A618269CA6171
:1058E000C2690A62F1EE102A12F0900F23D0294A01
:1058F0008A62026ACA62426A0A63826A4A63C26A46
:105900008A63026BCA63426B0A64826B4A64C26B2D
:105910008A64026CCA64426C0A65826C4A65C26C15
:105920008A65026DCA65426D0A66826D4A66C26DFD
:105930008A66006EC86601F027FD01BD01290EDBF5
:1059400010F01F025118BFF34F8F134A1060203020
:1059500020390129F9DABFF34F8FBFF36F8F7047FA
:1059600001290EDB10F01F025118BFF34F8F0B4AB5
:105970001060203020390129F9DABFF34F8FBFF3CF
:105980006F8F7047FAF9F8F7CC41022828ED00E054
:10599000A4A3A2A1ABAAA9A85CEF00E068EF00E075
:1059A000DFF83C040068400B10F001007047DFF89E
:1059B00030040068000B10F001007047DFF8240489
:1059C000016851F0010101600168C907FCD470470A
:1059D0001FB50400C9B2012924D16846102100F086
:1059E00035FA69462000FFF7E4FD0100C9B201293C
:1059F00002D1DFF8F4031EE00100C9B2022902D18E
:105A0000DFF8E80317E0C0B2042802D1DFF8E003B2
:105A100011E0009800F0F6F800280CD1FFF7CEFF57
:105A2000002008E02000FFF720FE002802D0DFF869
:105A3000B80300E0002004B010BD38B584B00C00FD
:105A40001500002C02D1DFF8AC033DE0206800F027
:105A5000C7F8012802D06068002802D1DFF894035B
:105A600032E06846102100F0F1F90620009960F359
:105A70001F610091207A009960F30F210091607AF4
:105A8000009960F317410091E07A019960F30F21CA
:105A90000191A07A019960F307010191207B01999E
:105AA00060F31F6101912068029060680390DFF845
:105AB0004803A17A30F811106068FFF751FF290000
:105AC000C9B26846FFF784FF05B030BD10B50400C9
:105AD000FFF766FF00280ED114F16C40B0F5403F8F
